:100000000C943B050C9482050C9482050C9482059B
:100010000C9482050C9482050C9482050C94820544
:100020000C9482050C9482050C9430260C940327C2
:100030000C94061D0C9482050C9482050C94820588
:100040000C9482050C9482050C9482050C94820514
:100050000C9482050C946E1D0C9482050C94820500
:100060000C9482050C9482050C9482050C948205F4
:100070000C9482050C9482050C9482050C948205E4
:100080000C9482050C9482050C9482050C948205D4
:100090000C9482050C9482050C9482050C948205C4
:1000A0000C9482050C9482050C94820501E00119E0
:1000B000021902E00001E00106020602E0002B0046
:1000C00014001A00090013000A000D000F001800A8
:1000D0001C0033002A0029440400150016001700F4
:1000E00007000B00110008000C0012003443E1006F
:1000F0001D001B000600190005000E001000360050
:1001000037003800E500E200E3000551E000284236
:100110002C0000000451E100E600E700E4002B00A1
:1001200014001A000800150017001C0018000C002D
:10013000120013002A0029440400160007000900D9
:100140000A000B000D000E000F0033003443E100E5
:100150001D001B00060019000500110010003600EC
:1001600037003800E500E000E3000551E2002842D6
:100170002C0000000451E6006500E700E4003500B3
:100180001E021F0220022102220223022402250253
:100190002602270201002900260227022F02300230
:1001A0004A005000510052004F004D002D00010048
:1001B0003100350231022E002D024A004E004B0064
:1001C0004D003100010001000100010001000100AB
:1001D00001000100010001000100010001003500E3
:1001E0001E021F02200221022202230224022502F3
:1001F0002602270201002900260227022F023002D0
:100200004A005000510052004F004D000100010013
:100210003100350231022E002D024A004E004B0003
:100220004D0031000100010001000100010001004A
:100230000100010001000100010001000100350082
:100240001E001F00200021002200230024002500A2
:100250002600270001000100260227022F0030009F
:10026000230221022100220023002E022D00010082
:100270003100350231022E002D0237001E001F0012
:100280002000250201000100010001000100010021
:100290000100010001000100010001000100010056
:1002A0003A003B003C003D000000A800AA00A90065
:1002B000000000004C0029003E003F0040004100CB
:1002C0000000AC00AE00AD00AB000000310001004A
:1002D0004200430044004500000000000000000010
:1002E0004900460001000100010001000100010079
:1002F0000100010006510100010001000100105041
:1003000001000100010001000100010001000100E5
:1003100001000100115001003770367039703870DB
:1003200001000100010001000100010001000100C5
:10033000347035703B703A7001000100010001001B
:1003400001000100010001000100010001000100A5
:100350000100010001000100010001000070010026
:100360000100010001000100010001000100010085
:100370000100010001000100010001000100010075
:100380000100010001000100010001000100010065
:100390000100010001000100010001000100010055
:1006B000010001000100010001000100010064329D
:1006C00014643214783C1E1E140A05000000000158
:1006D00001010202030405050607090A0B0C0E0FAF
:1006E0001112141517191B1D1F212325282A2C2F21
:1006F000313436393B3E414346494C4F5255585AA6
:100700005D6164676A6D707376797C7F8386898C9E
:100710008F9295989B9EA2A5A7AAADB0B3B6B9BC7F
:10072000BEC1C4C6C9CBCED0D3D5D7DADCDEE0E2B9
:10073000E4E6E8EAEBEDEEF0F1F3F4F5F6F8F9FAB9
:10074000FAFBFCFDFDFEFEFEFFFFFFFFFFFFFFFECD
:10075000FEFEFDFDFCFBFAFAF9F8F6F5F4F3F1F014
:10076000EEEDEBEAE8E6E4E2E0DEDCDAD7D5D3D082
:10077000CECBC9C6C4C1BEBCB9B6B3B0ADAAA7A5DD
:10078000A29E9B9895928F8C898683807C797673C4
:10079000706D6A6764615D5A5855524F4C494643C3
:1007A000413E3B393634312F2C2A282523211F1D69
:1007B0001B1917151412110F0E0C0B0A0907060549
:1007C0000504030202010101000000000000000016
:1007D0000101010101010101010202020202020202
:1007E00002020303030303030303040404040404D5
:1007F0000505050505060606060607070707080896
:1008000008080909090A0A0A0A0B0B0B0C0C0C0D43
:100810000D0D0E0E0F0F0F101011111112121313D8
:100820001414151516161717181819191A1A1B1C4F
:100830001C1D1D1E1F1F20202122222324252526AA
:10084000272728292A2B2B2C2D2E2F2F30313233DE
:10085000343536363738393A3B3C3D3E3F404142ED
:100860004344464748494A4B4C4D4F5051525355CB
:100870005657585A5B5C5E5F606263646667696A7C
:100880006C6D6E707173747678797B7C7E808183F9
:100890008486888A8B8D8F91929496989A9B9D9F3F
:1008A000A1A3A5A7A9ABADAFB1B3B5B7B9BBBDBF48
:1008B000C1C4C6C8CACCCFD1D3D6D8DADCDFE1E414
:1008C000E6E8EBEDF0F2F5F7FAFCFF12036B0065DA
:1008D00000790062006F0061007200640000001681
:1008E0000371006D006B006200750069006C0064AC
:1008F000006500720000000403090409026D000491
:100900000100A0FA090400000103010100092111FE
:100910000100012240000705810308000A090401C3
:10092000000103010200092111010001224D00070D
:1009300005820308000A09040200010300000009FF
:1009400021110100012236000705830308000A096E
:1009500004030001030000000921110100012239F4
:1009600000070584032000011201100100000008A7
:10097000EDFE606001000102000105010906A10110
:10098000050719E029E71500250195087501810281
:100990000508190129059505750191029501750351
:1009A00091010507190029F71500250195F8750132
:1009B0008102C005010980A10185021601002603FC
:1009C000001A81002A8300751095018100C0050C72
:1009D0000901A1018503160100269C021A01002AC3
:1009E0009C02751095018100C005010902A1010951
:1009F00001A10005091901290515002501950575B5
:100A00000181029501750381010501093009311544
:100A100081257F95027508810609381581257F9506
:100A20000175088106050C0A38021581257F95019C
:100A300075088106C0C005010906A101050719E076
:100A400029E71500250195087501810295017508B2
:100A50008101050819012905950575019102950186
:100A6000750391010507190029FF150026FF009560
:100A70000675088100C011241FBECFEFDAE0DEBF8B
:100A8000CDBF04B603FE27C080917A0290917B020D
:100A9000A0917C02B0917D028730904BA740B04B73
:100AA000D1F410927A0210927B0210927C02109282
:100AB0007D0214BE84B7877F84BF0FB6F894A895D3
:100AC00080916000886180936000109260000FBE8A
:100AD000E0E0F8E3099511E0A0E0B1E0E2EBF4E535
:100AE00002C005900D92A833B107D9F722E0A8E320
:100AF000B1E001C01D92AA37B207E1F70E947D2341
:100B00000C94572A0C940000613029F0623051F0A7
:100B100090E080E00895FC0182818823C9F385EB91
:100B200090E00895FC018281882391F38CEA90E0A3
:100B300008950895089581E00895089581E0089545
:100B40000C949B050E9465152FEF84E39CE02150D7
:100B500080409040E1F700C000000C94931DFF928C
:100B60000F931F93CF93DF938C01FC01C081D18140
:100B700080918301811148C08281882309F43FC09C
:100B8000CE010E94CC1AF82E682FCE010E94721A54
:100B9000BE018F2D0E948907EC01B8010E94A005BB
:100BA000882309F478C0B801CE010E94B9098823CE
:100BB00009F471C0C633F0E7DF0709F484C0C0F55B
:100BC000C53190E7D90728F5C230E0E7DE0708F025
:100BD00099C0C115F0E7DF0709F458C0C130D0470C
:100BE00009F460C081E080933A0180933B01C80121
:100BF000DF91CF911F910F91FF900C949E05CE0134
:100C00000E94A11AF82EC4CFCE010E94CC1ABE01B8
:100C1000C1CFC43390E7D90709F44EC0C533D047DC
:100C200009F7F80182818823B1F10E94CC0D33C00D
:100C3000CA33F0E7DF0709F457C070F4F801828186
:100C4000C833F0E7DF0709F44AC008F443C088233B
:100C500011F10E94100D1FC0CC33E0E7DE0709F44C
:100C6000D5C008F448C0CD33D04709F0BBCFF80158
:100C70008281882309F4F1C010923B010E94381D43
:100C8000909339018093380180E2CDC0F8018281D0
:100C900081110E94A20580E0DF91CF911F910F91F9
:100CA000FF900895F80182818823A9F380910702BB
:100CB000816080930702EFCFF8018281882359F386
:100CC0000E94D60DE8CFF8018281882321F30E948B
:100CD000C10CE1CF8823F9F20E94D90CDCCF882324
:100CE000D1F20E94F80CD7CFF8018281882399F2C3
:100CF0000E94280DD0CFF8018281882361F20E94E2
:100D0000400DC9CFF8018281882309F470CF0E9479
:100D1000891C811102C00E94631C0E94A61C90E0E5
:100D200090936B0280936A02FE01E350F04780913A
:100D30006A028160E231F105C8F4EF55F94F0C9475
:100D4000092AB306BF06C306C706CB06CF06D306DD
:100D5000D706DB06DF06E306E706EB06EF06F3063B
:100D6000F706FB06FF0680916A02826080936A02A2
:100D700080916A020E94AA1C0E9465158CCF809106
:100D80006A028460F3CF80916A028860EFCF80911D
:100D90006A028061EBCF80916A028062E7CF809126
:100DA0006A028064E3CF80916A028068DFCF80911D
:100DB0006A028460EACF80916A028E7FD7CF8091E9
:100DC0006A028D7FD3CF80916A028B7FCFCF8091D3
:100DD0006A02877FCBCF80916A028F7EC7CF8091D6
:100DE0006A028F7DC3CF80916A028F7BBFCF8091D3
:100DF0006A028F77BBCF80916A028B7FEACF909196
:100E00006A02892F97FB87F98058B0CFF801828159
:100E1000882361F010923A010E94381D90933901A5
:100E20008093380182E00E94CF1235CF80913A0141
:100E300081110FC080913801909139010E94441DA9
:100E4000883C910530F486E20E94A41186E20E945B
:100E5000801282E00E94D6121ECF80913B01811148
:100E60000FC080913801909139010E94441D883C47
:100E7000910530F487E20E94A41187E20E9480125B
:100E800080E2E8CF0C940A0A269A2E988FEF9FEF03
:100E9000909387008093860082E28093800089E1AE
:100EA000809381000C9432210E9444070C94080A1C
:100EB000282F2E9880918000211108C08F7D80936B
:100EC000800010928B0010928A00089580628093B7
:100ED0008000233039F48FEF9FEF90938B00809345
:100EE0008A00089583E090E0821B9109880F991F82
:100EF0002FEF3FEF02C0369527958A95E2F73093A2
:100F00008B0020938A0008950C949D050C9484070F
:100F10000895972F70E02CE0929F600D711D1124B1
:100F2000FB0190E3899FE00DF11D1124EE0FFF1FDF
:100F3000E254FF4F859194910895FC01EE0FFF1F3D
:100F4000E254F94F8591949108950E9489070E9477
:100F50003809811520E5920708F040C0811530E47A
:100F6000930708F0FAC0883E910518F5803E910578
:100F700008F07DC1883A910580F4853A910508F022
:100F800087C08130910509F472C120F08430910549
:100F900008F06DC190E080E008958D3B910508F464
:100FA00082C0803C9105B0F3805C91090E949D074E
:100FB0000895811540E2940750F4811521E09207CD
:100FC00008F055C1803F910528F39065089581157B
:100FD00030E3930708F0BEC09F70E8CF811545E568
:100FE000940760F5811524E5920708F0E5C08115A6
:100FF00032E5930750F4811541E5940708F4B0C039
:10100000982F8827816F906A0895282F2695269516
:10101000AC01437055278115934508F0BEC081E0AF
:1010200090E002C0880F991F4A95E2F740E2249FA2
:1010300090011124822B932B9C680895803340E704
:10104000940798F4803220E7920708F0BFC081151A
:1010500036E5930708F4B5C09C0130569F70211502
:10106000304108F097CF90620895813320E79207CE
:1010700009F4B3C008F4AEC0823340E7940709F422
:10108000AFC08333904709F085CF80E093ED08959A
:10109000853A910509F4A7C0863A910509F0A6C0E2
:1010A00082E890E40895883A910509F4A2C0893A4B
:1010B000910509F4A1C08A3A910509F4A0C08B3AC0
:1010C000910509F49FC08C3A910509F49EC08B3BB1
:1010D000910509F49DC08C3B910509F49CC08D3AA3
:1010E000910509F49BC0803B910509F49AC08E3AA2
:1010F000910509F499C08F3A910509F498C0813B94
:10110000910509F497C0823B910509F496C0833B91
:10111000910509F495C0843B910509F494C0853B81
:10112000910509F493C0863B910509F492C0873B71
:10113000910509F491C0883B910509F490C0893B61
:10114000910509F48FC08A3B910509F48EC080E0B7
:1011500094E408959927906C08959F70906A08957B
:101160009C0154E0369527955A95E1F7922F93709C
:10117000482F437021E030E002C0220F331F4A9510
:10118000E2F73C68392B86958695837040E2849F10
:10119000C0011124822B932B089581E090E002C0BE
:1011A000880F991F4A95E2F740E2249F900111248D
:1011B000822B932B9A680895982F8827846F906AC2
:1011C0000895982F882788279F714DCF8052904788
:1011D000946D089580E091ED089580E090ED08957C
:1011E00080E092ED089581E890E4089583E890E42A
:1011F000089582EE94E4089589EE94E408958AEEC9
:1012000094E4089585EB94E4089586EB94E40895BE
:1012100083EB94E4089584EB94E4089587EB94E4DD
:1012200008958CEC94E408958DEC94E4089583E89B
:1012300095E408958AE895E4089582E995E408958F
:1012400084E995E4089581E296E4089583E296E4C2
:10125000089584E296E4089585E296E4089586E28E
:1012600096E4089587E296E408958AE296E4089564
:101270008238910549F1B0F48133910509F45CC0DD
:1012800048F48932910509F452C08A32910509F473
:1012900058C008958533910509F444C089339105F8
:1012A00099F00895833E910531F138F4803E91051F
:1012B00091F0823E9105B1F00895863E910511F1BD
:1012C000873E910541F1089520916A022370C9F08B
:1012D00080EE90E0089520916A0220FF12C089E319
:1012E00090E0089520916A0222FF0BC024FF2EC0D7
:1012F00090E080E0089520916A0222FD2AC024FD3A
:10130000F7CF089520916A0223FFFBCF24FDF0CF91
:1013100087EE90E0089520916A0223FFF0CF86EED9
:1013200090E0089520916A0225FD16C0089520914D
:101330006A0225FD14C0089520916A0226FD12C09C
:10134000089520916A0226FD10C0089583EE90E072
:10135000089582EE90E0089589E290E0089585E393
:1013600090E008958AE290E0089581E390E0C9CF8B
:1013700008950F931F93CF938C01FB0182818111FC
:1013800006C0C1E08C2FCF911F910F910895C0919D
:101390004901C11125C00531104799F70E94B809CC
:1013A00081E0809349010E94381D90934801809309
:1013B000470110923C0110923E0110923D011092A3
:1013C000400110923F01109242011092410110928F
:1013D0004401109243011092460110924501D2CF70
:1013E00080914701909148010E94441D883C9105DD
:1013F00040F680913C01E82FF0E0EE0FFF1FE35C28
:10140000FE4F118300838F5F80933C01C0E0BACF11
:101410000C9499050C949A05CF93DF9385B7806857
:1014200085BF85B7806885BFA0E2B1E044E251E0A6
:10143000C1E0D0E08D91E82FE295EF70F0E061A17E
:101440008F709E0101C0220F8A95EAF7922F909526
:10145000962391A382A1822B82A34A175B0751F79F
:10146000A4E1B1E040E251E0C1E0D0E08D91E82F8D
:10147000E295EF70F0E061A18F709E0101C0220F34
:101480008A95EAF7922F9095962391A382A1822BB9
:1014900082A34A175B0751F7109253011092520131
:1014A00010924B0110924A01109255011092540172
:1014B00010924D0110924C0110925701109256015A
:1014C00010924F0110924E01109259011092580142
:1014D0001092510110925001DF91CF910C9454075A
:1014E0004F925F927F928F929F92AF92BF92CF92D4
:1014F000DF92EF92FF920F931F93CF93DF93CAE493
:10150000D1E000E211E094E2A92E91E0B92EEE24A0
:10151000E394F12C99249394C880D980198218827D
:10152000D8018D918D01E82FE295EF70F0E091A147
:101530008F70970101C0220F8A95EAF7892F822BBD
:1015400081A382A1822E8094882182A3B0EABA95D9
:10155000F1F784E1482E81E0582E90E080E0D2013E
:101560007D912D01472F42954F7050E0DA01909602
:101570007C90488159817F70D70102C0AA0FBB1FA0
:101580007A95E2F7BD01672109F068C0B701082E1E
:1015900002C0660F771F0A94E2F7462B572B598338
:1015A000488301968C309105D1F681A1882281A2D1
:1015B00082A1282B22A388819981C816D90641F0DF
:1015C00090925A010E94381D90935C0180935B01B8
:1015D0002296A016B10609F09FCF80915A01882368
:1015E00051F180915B0190915C010E94441D06972E
:1015F00010F180914A0190914B0190935301809397
:10160000520180914C0190914D019093550180932E
:10161000540180914E0190914F0190935701809316
:1016200056018091500190915101909359018093FE
:10163000580110925A010E94420781E0DF91CF9138
:101640001F910F91FF90EF90DF90CF90BF90AF90E0
:101650009F908F907F905F904F90089570E060E032
:101660009CCFE82FF0E0EE0FFF1FEE5AFE4F808177
:101670009181089508953EB1242F209523233EB1F2
:10168000432B3FB7F894FC01680F791FE617F70763
:1016900011F43FBF0895819198E04EB9000000C059
:1016A00087FF2EB9880F000000C000C000C02EB90F
:1016B00000C09A9591F7EACF2DB1242B2DB99B014B
:1016C000220F331F620F731F0E943B0B87EC90E0C9
:1016D0000197F1F700C00000089544E00C945C0B02
:1016E000CF92DF92EF92FF920F931F93CF93DF93EE
:1016F000E901662309F466C0E42EF12CEFEFF0E077
:10170000E61BF109EE9D8001EF9D100DFE9D100D71
:101710001124212FE12FFF27EE1AFF0A5CE3C52ECB
:10172000D12CB6010E94E129FB01BC01E69EC0015B
:10173000E79E900DF69E900D1124B6010E94E129BE
:10174000E230F10589F168F4812F262F210F3097BF
:1017500081F0242F461B319761F080E020E040E0CB
:1017600008C0E430F10551F128F1842F861B35972C
:10177000A1F7E42FF0E0E553F84F4491E22FF0E0B9
:10178000E553F84F9491E82FF0E0E553F84FE491DA
:1017900049839883EA83DF91CF911F910F91FF9046
:1017A000EF90DF90CF900895862F810FE42F412F87
:1017B0002E2FDFCFE42FE61B842FF9CF842F462F67
:1017C000410FD7CF842F242FD4CF88E090E00C9402
:1017D000172AAB01BC0188E090E00C94352AE4E3C1
:1017E000F2E083E08083109235028FEF828383835F
:1017F00060913402709135028091360290913702E7
:101800000C94E90B80913402ECE3F2E080FF06C017
:101810006EE070E08CE392E00C946D0B118210820C
:101820001282339682E0E636F807C1F7F1CFECE397
:10183000F2E0818360834283339692E0E636F907D3
:10184000C1F70C94020CEF92FF920F931F93CF936A
:10185000DF9300D01F92CDB7DEB7182FE92EF62EFA
:10186000042F8091340290913502A0913602B091FC
:1018700037028093380290933902A0933A02B093D2
:101880003B028091340280FF1FC09E012F5F3F4FBB
:10189000812F9E2D0E94700B8091380210FB87F9DA
:1018A000809338021695809139028078812BE0FA76
:1018B00087F980933902F0923A0200933B024B8100
:1018C00069818A810E94170C0F900F900F90DF9111
:1018D000CF911F910F91FF90EF9008950F931F9359
:1018E000CF93DF93EC01062F142F9091340290FFD9
:1018F00043C0892F8E77823021F5CE010E94230CC0
:1019000080913402C0FB87F980933402C6958091A0
:1019100035028078C82BD0FBC7F9C09335020093FD
:101920003602109337026091340270913502809133
:10193000360290913702DF91CF911F910F910C9455
:10194000E90B892F86958F732EE3280F2F73243090
:1019500018F410913702D4CF865C8F73893080F6EB
:10196000991F9927991FD0913502CD2FCC0FC92BE4
:10197000D7FBDD27D0F9C4CFDF91CF911F910F9115
:101980000895E4E3F2E02081221F2227221F3091F4
:101990003502432F440F842F822B37FB992790F970
:1019A000089668E671E00E94F529438162810C94F3
:1019B0006E0C20913402221F2227221F3091350203
:1019C000432F440F842F822B37FB992790F98830BF
:1019D000910540F4805A9E4F409137026091360243
:1019E0000C946E0C089768E671E00E94F529F4CF1C
:1019F00060913602683F90F4685F80913402881FDE
:101A00008827881F90913502292F220F97FB99274D
:101A100090F940913702822B0C946E0C6FEFEDCF52
:101A200060913602683090F0685080913402881FCF
:101A30008827881F90913502292F220F97FB99271D
:101A400090F940913702822B0C946E0C60E0EDCF40
:101A500040913702483F90F4485F80913402881FDC
:101A60008827881F90913502292F220F97FB9927ED
:101A700090F960913602822B0C946E0C4FEFEDCFF3
:101A800040913702483090F0485080913402881FCE
:101A90008827881F90913502292F220F97FB9927BD
:101AA00090F960913602822B0C946E0C40E0EDCFE1
:101AB0009091340290FF3BC09178811126C09260D2
:101AC0009093340260913402709135028091360215
:101AD000909137020E94E90B80913402982F9E77F3
:101AE0009230D9F410927201881F8827881F909134
:101AF0003502292F220F97FB992790F94091370241
:101B000060913602822B0C946E0C893110F0906338
:101B1000D7CF8F73880F982BD3CF982F9695925C41
:101B20009F73963108F791E090937201DDCF08958D
:101B30008091070281608093070281E080937301A6
:101B40000E94891C811104C00E94631C0E94EF0B3B
:101B50000E94E50B60933402709335028093360245
:101B6000909337026E7761F40E94EF0B0E94E50BB1
:101B7000609334027093350280933602909337025B
:101B800081E0809372018091340280FF04C08695C9
:101B90008F730C94580D08958091340286958F733D
:101BA0008F5F893108F081E00C94580D90913402D8
:101BB000892F8E7F90FF8160809334026091340280
:101BC0007091350280913602909137020E94E90BA4
:101BD0008091340280FF04C086958F730C94580D59
:101BE000109272012FEF80E792E0215080409040E8
:101BF000E1F700C000000C94020CCF93C82F809135
:101C00007001909171010E94441DEC2FF0E0E953A6
:101C1000F94FE491E817190609F010F50E94381DF4
:101C20009093710180937001E0916F01F0E0E553B2
:101C3000F94F449180913402881F8827881F909122
:101C40003502292F220F97FB992790F960913602D0
:101C5000822B0E94230C80916F018F5F80936F0114
:101C6000CF910895CF93C82F80916D0190916E010F
:101C70000E94441DEC2FF0E0EC53F94FE491E8177B
:101C8000190609F0E8F40E94381D90936E018093C4
:101C90006D01409137026091360280916B01909105
:101CA0006C010E94230C80916B0190916C01019654
:101CB00068E671E00E94E12990936C0180936B01CA
:101CC000CF910895DF92EF92FF920F931F93CF93DE
:101CD000DF93D82E8091690190916A010E94441D82
:101CE000ED2DE695F0E0EC53F94FE491E817190675
:101CF00009F0A8F50E94381D90936A01809369014C
:101D00000CE312E0D0E0C0E088E6E82EFF24F39474
:101D100080916701909168018C0F9D1FB7010E940F
:101D2000E129980140913702609136020E94700BC0
:101D300069960D5F1F4FCE3581E0D80749F70E94A5
:101D4000020C8091670190916801D0FE10C001964D
:101D5000B7010E94E1299093680180936701DF91A8
:101D6000CF911F910F91FF90EF90DF900895019711
:101D7000F2CFAF92BF92CF92DF92EF92FF920F938A
:101D80001F93CF93DF93C82FFF24FA9480FD02C0E6
:101D9000FF24F39480916501909166010E94441D97
:101DA000C695EC2FF0E0EF53F94FE491E8171906D0
:101DB00011F008F053C00E94381D90936601809383
:101DC0006501CCE3D2E010E000E097E0C92ED12C11
:101DD000198218821A8287E0A82EB12CE12C8091FA
:101DE00064018E0D87FD825F082E000C990B081789
:101DF0001907E9F4209137022A9DC0012B9D900D0F
:101E00001124B6010E94F529462F80913402881FC3
:101E10008827881F90913502592F550F97FB9927D6
:101E200090F99E0160913602852B0E94700BEF0C99
:101E300081E0A81AB10899F60F5F1F4F23960E3064
:101E4000110531F60E94020C8091640191E0F912B3
:101E500012C081110EC08DE080936401DF91CF919B
:101E60001F910F91FF90EF90DF90CF90BF90AF90B8
:101E700008958150F1CF90E00196B8010E94F529B4
:101E8000EBCFBF92CF92DF92EF92FF920F931F930F
:101E9000CF93DF93CDB7DEB7AA970FB6F894DEBF26
:101EA0000FBECDBF182F80916201909163010E94F7
:101EB000441DE12FF0E0E254F94FE491E8171906D0
:101EC00011F008F07AC00E94381D9093630180934E
:101ED00062018E010F5F1F4FF12CE12C6801D801C8
:101EE00011961C9211971C9212961C92B12C9091F3
:101EF000000180916101B99E800D11248E300CF09B
:101F00008DE087FD80E0082E000C990BE816F9069D
:101F1000A1F480913402881F8827881F9091350290
:101F2000592F550F97FB992790F998014091370247
:101F300060913602852B0E94700BB394B7E0BB1200
:101F4000D6CFEFEFEE1AFE0A0D5F1F4FFEE0EF1641
:101F5000F10429F62CE332E009E010E05EE0E52E22
:101F6000F12CC801B7010E94F529FC01EE0FFF1FFB
:101F7000E80FF91FEC0DFD1D8181D90111968C939D
:101F8000119780818C93828112968C930F5F1F4FE3
:101F90002D5F3F4F0731110521F70E94020C9091F0
:101FA0000001809161019130E1F48A3FB4F489EF3E
:101FB000809361018FEF80930001AA960FB6F89489
:101FC000DEBF0FBECDBFDF91CF911F910F91FF906C
:101FD000EF90DF90CF90BF90089581508093610182
:101FE000ECCF85312CF084E18093610181E0E3CF77
:101FF0008F5FF4CFCF93DF9380915F019091600169
:102000000E94441D883E934028F10E94381D909301
:10201000600180935F0180915D0190915E01019666
:102020008170992790935E0180935D01CCE3D2E0AB
:102030009E01409137026091360290E080E00E945C
:10204000700B239682E0C636D80791F7DF91CF91C7
:102050000C94020CDF91CF91089580917201882336
:1020600071F18091340286958F739EE3980F9F7370
:10207000943018F482500C94FD0D9AE3980F9F73DE
:10208000933018F486500C94320E97E3980F9F7398
:10209000963018F489500C94620E91E3980F9F7358
:1020A000963018F48F500C94B90E9BE2980F9F73E2
:1020B000933018F485510C94410F0C94FA0F089545
:1020C00090937901809378010895E0917801F091DF
:1020D0007901309721F00190F081E02D099480E0A2
:1020E0000895E0917801F0917901309721F0028014
:1020F000F381E02D09940895E0917801F091790140
:10210000309721F00480F581E02D09940895209105
:102110007601309177012817390771F09093770194
:1021200080937601E0917801F0917901309721F068
:102130000680F781E02D0994089520917401309173
:1021400075012817390771F0909375018093740118
:10215000E0917801F0917901309721F00084F185C8
:10216000E02D0994089508950C94B3100E942F1D3A
:102170000E940C0A0E94001E0E9432210C94980DAD
:102180005F926F927F928F929F92AF92BF92CF9207
:10219000DF92EF92FF920F931F93CF93DF93CDB710
:1021A000DEB72A970FB6F894DEBF0FBECDBF0E94F0
:1021B000700A9BE7A92E91E0B92E10E000E0882478
:1021C0008394912C502E802F0E94310B7C01F501BD
:1021D000C190D1905F01C816D90609F45EC0809104
:1021E000070281FD0E943A0B90E080E0CE24DF24BC
:1021F0003401082E02C0660C771C0A94E2F796019F
:1022000026213721232B09F443C08E835F82E620E9
:10221000F72081E0EF2809F480E088870E94381DCC
:102220008160782F9A8789874E815F8168858A854A
:102230000E947A11000F111FF801E558FE4F8081AE
:10224000918168267926718260820E9484200E9492
:10225000651090917A018917B9F10E9465108093F9
:102260007A012A960FB6F894DEBF0FBECDBFDF917C
:10227000CF911F910F91FF90EF90DF90CF90BF9083
:10228000AF909F908F907F906F905F900C94860797
:1022900001968C30910509F0ABCF0F5F1F4F0430D2
:1022A000110509F08FCF8FEF89838A831B820E94EB
:1022B000381D8160782F9D838C8349815A816B8181
:1022C0008D810E947A11C1CF2A960FB6F894DEBF95
:1022D0000FBECDBFDF91CF911F910F91FF90EF9077
:1022E000DF90CF90BF90AF909F908F907F906F9036
:1022F0005F900895CF93DF93CDB7DEB72B970FB6DE
:10230000F894DEBF0FBECDBF4F83588769877A87A9
:102310008B871E821D8285E0FE013796DE011196B5
:1023200001900D928A95E1F749815A816B817C81F8
:102330008D819E812B960FB6F894DEBF0FBECDBF68
:10234000DF91CF910C941718882309F4D8C08238F4
:1023500071F40E94651081FDD2C089E30E946C1B5C
:102360000E94341C89E30E94A91B0C94341C8338FE
:1023700059F40E94651080FDC2C083E50E946C1B69
:102380000E94341C83E5EFCF843859F40E94651015
:1023900082FDB5C087E40E946C1B0E94341C87E458
:1023A000E2CF9CEF980F913A18F40E946C1BDDCF9E
:1023B00090E2980F983050F4877091E001C0990F27
:1023C0008A95EAF7892F0E94EB1BCFCF9BE5980FE8
:1023D000933070F4853A31F0863A39F083E890E032
:1023E0000C94871081E890E0FBCF82E890E0F8CF72
:1023F00098E5980F953108F082C0883A09F440C0FA
:10240000893A09F440C08A3A09F440C08B3A09F489
:1024100040C08C3A09F440C08B3B09F440C08C3B6F
:1024200009F440C08D3A09F440C0803B09F440C033
:102430008E3A09F440C08F3A09F440C0813B09F458
:1024400040C0823B09F440C0833B09F440C0843B58
:1024500009F440C0853B09F440C0863B09F440C004
:10246000873B09F440C0883B09F440C0893B09F42C
:1024700040C08A3B09F440C090E080E00C949D107D
:1024800082EE90E0FBCF89EE90E0F8CF8AEE90E00C
:10249000F5CF85EB90E0F2CF86EB90E0EFCF83EBCA
:1024A00090E0ECCF84EB90E0E9CF87EB90E0E6CFD3
:1024B0008CEC90E0E3CF8DEC90E0E0CF83E891E00E
:1024C000DDCF8AE891E0DACF82E991E0D7CF84E9E5
:1024D00091E0D4CF81E292E0D1CF83E292E0CECFFF
:1024E00084E292E0CBCF85E292E0C8CF86E292E030
:1024F000C5CF87E292E0C2CF8AE292E0BFCF0895D3
:10250000882309F44BC0823871F40E94651081FF62
:1025100045C089E30E946C1B0E94341C89E30E9421
:10252000A91B0C94341C833859F40E94651080FF59
:1025300035C083E50E946C1B0E94341C83E5EFCFFD
:10254000843859F40E94651082FF28C087E40E94F5
:102550006C1B0E94341C87E4E2CF9CEF980F913AE9
:10256000F0F290E2980F983050F4877091E001C03B
:10257000990F8A95EAF7892F0E94F11BD2CF9BE52C
:10258000980F933020F490E080E00C948710885AE4
:10259000853120F490E080E00C949D10089588230C
:1025A00021F00E94EB1B0C94341C0895882321F029
:1025B0000E94F11B0C94341C08958F929F92AF924D
:1025C000BF92DF92EF92FF920F931F93CF93DF930F
:1025D0007C01D62FC72FFC01058102950F70128157
:1025E00011110E940A1C0E94651BD82E882371F0CD
:1025F000112321F180E28D0F883000F182E00E94EA
:102600004F1B0E94651B91E0D82ED926EC2FE29536
:10261000EF70F0E0E25FFC4E0C94092A20132013C7
:1026200070137013B213CE134D134D13D9134D13F2
:1026300071147114E414ED144D130D15D12CE6CF63
:102640000C2F0F70C07F11F00295007F1123A9F0AD
:10265000002359F080E28D0F883010F0D11109C0AD
:10266000802F0E94EB1B0E94341C8D2F0E94A4110E
:1026700014C0802F0E94FC1BF6CF8D2F0E94801269
:10268000002359F080E28D0F883010F0D11124C062
:10269000802F0E94F11B0E94341CDD2009F4C4C16C
:1026A0000E94421B80FDC0C1F70112820E943C1BA8
:1026B0000E94B619C7010E9420150E943C1BDF91A1
:1026C000CF911F910F91FF90EF90DF90BF90AF904F
:1026D0009F908F900C94D719802F0E94021CDBCF03
:1026E000FC2FFF70BF2EC07FC03219F0B29480EF74
:1026F000B822DD2369F0D13029F1112369F10023DB
:1027000059F0F701858180FFB0CF8F70858304C0B9
:10271000112361F0011104C08B2D0E94CF12BDCF97
:102720008B2D0130D1F70E941E1CB7CF011106C0BE
:102730000E94211C8B2D0E94D612AFCF013009F4CC
:10274000ACCFF6CF112321F0063008F0A6CFE4CFAE
:10275000053008F0A2CFEECF002361F38D2F0E9449
:1027600080129BCF8C2F86958695837069F081307F
:1027700009F093CF8D2F9C2F9370111102C090E020
:1027800080E00E949D1089CF8D2F9C2F9370111196
:1027900002C090E080E00E9487107FCF8D2F112330
:1027A00029F00E948D1F0E94792077CF0E94F51F8B
:1027B000FACF8C2F837009F047C011116ECF2D2FE7
:1027C000229526952770220F220F6D2F6F70862E6F
:1027D000912CB12CA12C022E04C0880C991CAA1C8F
:1027E000BB1C0A94D2F760E070E0CB01D4FF0FC0AD
:1027F0006FE070E080E090E004C0660F771F881FF4
:10280000991F2A95D2F76095709580959095C695F9
:10281000C695C370C23051F080F4682979298A299D
:102820009B29C13071F00E945F1937CF682979293F
:102830008A299B290E947B1930CF0E945F19C5010C
:10284000B4010E94431929CF8695112311F08C2FD2
:102850008170882309F421CF2D2F2295269527708A
:10286000220F220F6D2F6F70862E912CB12CA12C70
:10287000022E04C0880C991CAA1CBB1C0A94D2F717
:1028800060E070E0CB01D4FF0FC06FE070E080E04B
:1028900090E004C0660F771F881F991F2A95D2F712
:1028A0006095709580959095C695C695C370C23019
:1028B00051F080F4682979298A299B29C13071F067
:1028C0000E94391AEACE682979298A299B290E940F
:1028D000551AE3CE0E94391AC501B4010E941D1A8F
:1028E000DCCEE0E2ED0FE53108F062C0F0E0E55843
:1028F000FB4E0C94092A9014901490149014901488
:1029000090149014901490149014901490149014A7
:102910009014901490149D14AB14B214B914C314F1
:10292000DF708C2F8F71112321F00E94B6198D2F2B
:10293000F4CE0E94D7198D2FFECE112341F0053021
:1029400008F0ABCE8C2F8F710E94FC19A6CE0630FA
:1029500008F0A3CEF7CF8C2F8F71112339F00E948E
:10296000B6199BCE8C2F8F711123C9F30E94D719F2
:1029700094CE112329F08C2F8F710E94A1198DCE36
:102980000E9497198ACE112349F0CF718C2F0E9493
:10299000B61963E08C2F0E94461B7FCE81E00E9417
:1029A0004F1B023008F479CE82E00E944F1B75CE97
:1029B000112329F0011159CE8C2F8F71D0CF011125
:1029C000CDCE8C2F8F71D2CF4C2F4F706D2FC70172
:1029D0000E9484050E94C01860CE11115ECECF7097
:1029E000C230A9F040F4CC2379F0C13009F055CEC3
:1029F0000E945B2152CEC33069F0C43009F04DCE45
:102A00008D2F0E94AA2149CE0E94432146CE0E94CA
:102A1000742143CE0E94872140CE4C2F4F706D2FE2
:102A2000C7010E94880739CEDF91CF911F910F9186
:102A3000FF90EF90DF90BF90AF909F908F900895A0
:102A40000F931F93CF93DF93EC01988189812B81A2
:102A50003C81232B39F08F3F19F481E09F3F19F01F
:102A600080E001C081E080FD17C0CE010E94AF056B
:102A7000882391F0688179818A810E94181B8C01DA
:102A80000E94711A0E943819B801CE01DF91CF91CE
:102A90001F910F910C94DD12DF91CF911F910F9137
:102AA00008950E940A1C0E941B1C0E94DD1B0E94AC
:102AB000341C0E9426210E94792090E080E00E9430
:102AC000871090E080E00C949D100E94F91B0C94FC
:102AD00051150E940E1BE92FE295EF70E250EE3087
:102AE000E0F4F0E0EA58FA4E0C94092A84158415B3
:102AF0008D158D158F158D158D158D1584158415D6
:102B000094158D158D159415803F19F020F4803E95
:102B100020F481E00895843FE1F380E00895803E51
:102B2000C0F3813FD1F7F5CF93FB882780F9089553
:102B3000CF93DF9300D000D01F92CDB7DEB70F90B8
:102B40000F900F900F900F90DF91CF910895CF933A
:102B5000DF9300D000D000D0CDB7DEB726960FB6F9
:102B6000F894DEBF0FBECDBFDF91CF9108951F93C4
:102B7000CF93DF93C091840116E0809185018C137F
:102B800004C0DF91CF911F910895D0E01C9FF00108
:102B90001D9FF00D1124EA57FE4F40815181628143
:102BA0007381848195810E94A7152196C770E5CF16
:102BB0004091B6015091B7016091B8017091B9018F
:102BC0008091BA019091BB010C94A7151F93CF93EC
:102BD000DF938091BB01807FD1F48091B80188237D
:102BE000B1F080918401D0918501B091B601C0917E
:102BF000B7014091B9015091BA01A1E0BF3F09F07E
:102C0000A0E0BA016095709516E0D81304C0DF917A
:102C1000CF911F91089521E04115510521F02A2FF0
:102C2000CF3F09F020E090E020FD38C0189FF00170
:102C3000199FF00D1124EA57FE4F21812C132EC04D
:102C400020812B132BC02281211128C023813481A4
:102C50002417350700F1241B350B283C3105F0F40F
:102C60002091BB012F7020612093BB0126E0289F9B
:102C7000F001299FF00D1124E557FE4F80818F70E0
:102C80008061808386EB91E00E942015DF91CF91D7
:102C90001F910C94B715260F371FDFCF0196877051
:102CA000B4CFAF92BF92CF92DF92EF92FF920F9389
:102CB0001F93CF93DF93CDB7DEB761970FB6F8942C
:102CC000DEBF0FBECDBF8C0185E0F801DE011D9691
:102CD00001900D928A95E1F7D8014C9111965C9183
:102CE00011971296EC903091B6016091B7018091E6
:102CF000B9019091BA0121E0009731F06F3F19F4CA
:102D000021E03F3F09F020E0B22FB170BB2E20FD43
:102D100080C1F801C380D480A090B801AA2009F432
:102D200027C1C816D906D0F1D601A81BB90BCD0111
:102D3000FF24F394883C910508F0F12C8091BB01AD
:102D4000982F907FFF2009F4CAC0911187C0FE2CF4
:102D5000651329C0341327C0E11025C08F7080612E
:102D60008093BB010E94D81586EB91E00E9420154C
:102D70008091BB01F80185838F2D61960FB6F89481
:102D8000DEBF0FBECDBFDF91CF911F910F91FF909E
:102D9000EF90DF90CF90BF90AF9008958095909581
:102DA0008C0D9D1DC5CF81E0CD2831F05F3F19F41A
:102DB00081E04F3F09F080E080FD24C081E08E2556
:102DC000F82FF170DF2E80FF3FC0809184012091A9
:102DD000850136E0821318C04D875E878D859E85FC
:102DE0000E940E1B292F22952F70223008F12430CB
:102DF00030F59F7009F1D80115969C91907FE1F410
:102E0000FB2CBACF80E0DCCF90E0389FF001399FF7
:102E1000F00D1124EA57FE4F6181561306C0608100
:102E2000461303C062816E110FC001968770D2CF26
:102E30009F7011F0882321F3805E883008F3C80169
:102E40000E942015BD2CDCCFEE2009F495CF809197
:102E5000BB0181608093BB01F12C8ECF651312C042
:102E6000341310C0E1100EC0F8018583C8010E9420
:102E7000201586E0F801A6EBB1E001900D928A954D
:102E8000E1F741C04D875E878D859E850E9469155B
:102E9000882309F4C8C0EE2009F4C5C08091BB01A5
:102EA000803270F02091B6013091B70138872F83BE
:102EB0001986DB86CA868C87CE0107960E9420156C
:102EC00086E0F801A6EBB1E001900D928A95E1F75A
:102ED0000E94E6150E94D815FF24F3944DCF91115E
:102EE00015C07C2DD98AC88A6E2D89890E949815B3
:102EF00086EB91E00E94201586E0E6EBF1E0DF0131
:102F00001D928A95E9F70E94D81536CF651312C035
:102F1000341310C0E1100EC0F8018583C8010E946F
:102F20002015E6EBF1E086E0DF011D928A95E9F7D6
:102F3000FA2C22CF4D875E878D859E850E9469156C
:102F4000882309F470C0EE2009F46DC08091BB01A4
:102F5000803208F4B5CF2091B6013091B7013A83A1
:102F600029831B82DD82CC828E83CE010196A6CF7F
:102F7000C816D90638F1F601E81BF90BCF01F12C80
:102F8000883C910508F03DC0FE2CEE2009F44BC0B2
:102F9000651326C0341324C08091BB0180FD17C087
:102FA000982F907FA1F0D80115968C931597903F9C
:102FB00009F45CCF982F907F905F8F70892B1596C6
:102FC0008C9354CF809590958C0D9D1DD8CF86E025
:102FD000F801A6EBB1E001900D928A95E1F7CCCE15
:102FE0004D875E878D859E850E946915811168CF0A
:102FF0008091BB0181608093BB01C8010E942015B4
:10300000BBCE7C2DD98AC88A6E2D89890E949815DD
:1030100073CFEE2041F04D875E878D859E850E949F
:10302000691581114DCFC8010E94201555CF1F93FE
:10303000CF93DF93CDB7DEB72C970FB6F894DEBFF2
:103040000FBECDBF4F83588769877A878B879C8750
:10305000CE0107960E945116882309F442C09F8131
:1030600088852A853B85232B39F08F3F19F481E031
:103070009F3F19F080E001C081E080FD08C04F81D2
:10308000588569857A858B859C850E94A71516E0F1
:103090008091840190918501891709F467C0819F0F
:1030A000C00111248A579E4F0E945116882309F4AB
:1030B0005DC0E09184011E9FF0011124EA57FE4F8C
:1030C0004081518162817381848195810E94A7151D
:1030D0008091840190E00196877099278093840104
:1030E000D7CF86E0FE013796DE01119601900D9252
:1030F0008A95E1F79F8188852A853B85232B39F0C6
:103100008F3F19F481E09F3F19F080E001C081E01A
:1031100080FDBDCF2091850130E0C9010196877007
:103120009927409184014817190699F096E0929FDB
:10313000D001939FB00D1124AA57BE4FFE013196C6
:1031400001900D929A95E1F7809385010E94B71541
:103150009ECF0E946515109285011092840186E031
:10316000E6EBF1E0DF011D928A95E9F72C960FB6A8
:10317000F894DEBF0FBECDBFDF91CF911F910895B0
:10318000EF92FF920F931F93CF93DF938C01892BC4
:1031900081F0F12CEE24E394E8012196F80184916A
:1031A000843770F4843008F05FC08130B1F0823031
:1031B000A1F1DF91CF911F910F91FF90EF900895B2
:1031C000853709F44CC008F43DC09CE7980F903750
:1031D00080F78F770E94801249C00E5F1F4FFE015B
:1031E000849190E2980F983060F48770FE2D01C0B2
:1031F000FF0F8A95EAF78F2F0E940D1C0E94341C46
:1032000002C00E94A4118F2D815030F2EFE9FFE03F
:103210003197F1F700C00000F7CF0E5F1F4FFE019E
:10322000849190E2980F983050F48770FE2D01C081
:10323000FF0F8A95EAF78F2F0E94131CDFCF0E94A1
:103240008012E1CF0E5F1F4FFE01C491C150D8F232
:103250008FE99FE00197F1F700C00000F7CF0E5F04
:103260001F4FFE01F490CFCF0E94A4118E01CBCF4F
:1032700008956093DE017093DF018093E0019093E5
:10328000E1010C9451150F931F930091DE011091F1
:10329000DF012091E0013091E101DC01CB01802BC5
:1032A000912BA22BB32B8093DE019093DF01A0938F
:1032B000E001B093E1011F910F910C9451150F9310
:1032C0001F930091DE011091DF012091E001309108
:1032D000E101DC01CB0180239123A223B32380935E
:1032E000DE019093DF01A093E001B093E1011F9113
:1032F0000F910C9451150F931F930091DE011091C3
:10330000DF012091E0013091E101DC01CB01802758
:103310009127A227B3278093DE019093DF01A0932A
:10332000E001B093E1011F910F910C94511510929F
:10333000DA011092DB011092DC011092DD010C9495
:10334000511541E050E060E070E004C0440F551FAB
:10335000661F771F8A95D2F74093DA015093DB01FD
:103360006093DC017093DD010C94511541E050E055
:1033700060E070E004C0440F551F661F771F8A95F8
:10338000D2F78091DA019091DB01A091DC01B0913C
:10339000DD01842B952BA62BB72B8093DA0190931C
:1033A000DB01A093DC01B093DD010C94511541E0E9
:1033B00050E060E070E004C0440F551F661F771FA7
:1033C0008A95D2F740955095609570958091DA0175
:1033D0009091DB01A091DC01B091DD018423952364
:1033E000A623B7238093DA019093DB01A093DC013D
:1033F000B093DD010C94511541E050E060E070E0C5
:1034000004C0440F551F661F771F8A95D2F780911D
:10341000DA019091DB01A091DC01B091DD018427FC
:103420009527A627B7278093DA019093DB01A09315
:10343000DC01B093DD010C9451150F931F930091A3
:10344000DA011091DB012091DC013091DD01DC011A
:10345000CB01802B912BA22BB32B8093DA0190937D
:10346000DB01A093DC01B093DD011F910F910C945F
:1034700051150F931F930091DA011091DB012091F8
:10348000DC013091DD01DC01CB0180239123A223FB
:10349000B3238093DA019093DB01A093DC01B09316
:1034A000DD011F910F910C9451150F931F93009103
:1034B000DA011091DB012091DC013091DD01DC01AA
:1034C000CB0180279127A227B3278093DA0190931D
:1034D000DB01A093DC01B093DD011F910F910C94EF
:1034E000511508952CE0929F800D1124982F97700C
:1034F00071E001C0770F9A95EAF7869586958695D3
:1035000025E0829FC001112450E040E0A62FB0E0EA
:10351000FC01E40FF51FE454FE4F60819D01042E71
:1035200002C0369527950A94E2F721702195262747
:103530002723262720834F5F5F4F4530510541F7F2
:1035400008952CE0929F800D1124982F97708695F6
:103550008695869525E0829FA001112470E060E0A9
:1035600080E0FA01E60FF71FE454FE4F208130E0BF
:10357000092E02C0369527950A94E2F72170332769
:10358000062E01C0220F0A94EAF7822B6F5F7F4F4D
:103590006530710531F70895BF92CF92DF92EF92B7
:1035A000FF920F931F93CF93DF938C01C090DA01AA
:1035B000D090DB01E090DC01F090DD018091DE0134
:1035C0009091DF01A091E001B091E101C82AD92AD0
:1035D000EA2AFB2ACFE1D0E0BC2ED701C6010C2E8F
:1035E00004C0B695A795979587950A94D2F780FD64
:1035F0000EC0219788F7B12C8B2DDF91CF911F91B1
:103600000F91FF90EF90DF90CF90BF900895B80199
:103610008C2F0E94A507019761F3EECFCF93DF9324
:10362000EC010E94CC1ABE01DF91CF910C94A5074A
:103630001F93CF93DF93EB0190918301992331F096
:10364000CB01DF91CF911F910C940E1B882379F051
:10365000CB010E94CC1A182F682FCE010E94721A3B
:10366000BE01812FDF91CF911F910C94A507CB0153
:103670000E94A11A182FF4CF8091E20185958595BB
:10368000859508958091E2018770089598E0899F5B
:1036900090011124622B6093E2010C94B619909171
:1036A000E201809589238093E201282F277061F43D
:1036B000282F082E000C330B9217130629F085953E
:1036C000859585950C94D71908959091E20197708E
:1036D00081E009F480E00895909113019923E1F0CD
:1036E00090916A0297FF18C0E82FE695E695E69557
:1036F000EF3139F12091010130910201E20FF32FF6
:10370000F11D877021E030E001C0220F8A95EAF7B1
:103710008181822B818308952091010130910201E2
:10372000F90132969FEF40E05191851751F09F3F8C
:1037300019F4511101C0942F4F5F4E31A9F79F3FEB
:1037400009F40895290F311D97FD3A95F9018283F7
:103750000895909113019923F1F090916A0297FFD7
:103760001AC0E82FE695E695E695EF3129F120910C
:10377000010130910201E20FF32FF11D282F277074
:1037800081E090E001C0880F2A95EAF78095918149
:103790008923818308952091010130910201F9016B
:1037A0003296205E3F4F9191891303C0DF0111973C
:1037B0001C92E217F307B9F7089581E090E0E091D9
:1037C0000101F0910201E80FF91F10820196803289
:1037D0009105A9F7089590910602892B809306021E
:1037E0000895982F90958091060289238093060270
:1037F000089510920602089590910502892B8093F6
:1038000005020895982F9095809105028923809351
:103810000502089510920502089590910402892BE3
:10382000809304020895982F909580910402892333
:103830008093040208951092040208958093E30196
:1038400008951092E3010895209101013091020141
:10385000F9013196205E3F4F80E0919191118F5F89
:10386000E217F307D1F70895E0910101F091020109
:10387000809106028083E0910101F0910201808134
:1038800090910502892B8083E0910101F091020162
:10389000808190910402892B80839091E301992388
:1038A00061F0E0910101F09102018081892B808318
:1038B0000E94241C81111092E301809101019091DA
:1038C00002010C9471106DEE7EEF90E080E00E949A
:1038D000412A60E082E090E00E94232A60E083E0D9
:1038E00090E00E94232A60E084E090E00E94232A76
:1038F00060E085E090E00E94232A60E086E090E0AE
:103900000E94232A40E050E0BA0188E090E00C9445
:10391000352A90E080E00E941D2A21E08D3E9E4FD6
:1039200009F020E0822F089582E090E00C940F2AA5
:10393000682F82E090E00C94232A83E090E00C94BE
:103940000F2A682F83E090E00C94232A84E090E013
:103950000C940F2A682F84E090E00C94232A86E0D0
:1039600090E00C940F2A682F86E090E00C94232AB4
:1039700080917102843051F11092080288E190E048
:1039800020E40FB6F894A895809360000FBE2093B2
:10399000600080E00E94580780E00E94860783B79D
:1039A000817F846083BF83B7816083BF789488956B
:1039B00083B78E7F83BF0FB6F894A895809160007F
:1039C000886180936000109260000FBE0895089592
:1039D0000895CF930E94E71C0E94700A0E94E81C81
:1039E000C0E08C2F0E94310B892B31F4CF5FC430A3
:1039F000C1F780E0CF91089581E0FCCF0E9465156A
:103A00000E9432210E9465100C9486071F920F922B
:103A10000FB60F9211248F939F93AF93BF93809112
:103A20000802811113C08091660290916702A091F3
:103A30006802B09169024196A11DB11D8093660292
:103A400090936702A0936802B0936902BF91AF910F
:103A50009F918F910F900FBE0F901F90189582E04D
:103A600084BD93E095BD9AEF97BD80936E00089555
:103A70002FB7F8948091660290916702A091680236
:103A8000B09169022FBF0895CF92DF92EF92FF921B
:103A90000F931F932FB7F8944091660250916702DD
:103AA00060916802709169022FBF6A017B01EE2468
:103AB000FF248C0130E020E0C016D106E206F306B8
:103AC00050F0481B590BCA011F910F91FF90EF90C6
:103AD000DF90CF90089541505109F3CF1F920F927C
:103AE0000FB60F9211248F939F93AF93BF93809142
:103AF000660290916702A0916802B09169020196F6
:103B0000A11DB11D8093660290936702A093680285
:103B1000B0936902BF91AF919F918F910F900FBEAB
:103B20000F901F9018950E94B525F8942FEF87EA03
:103B300091E6215080409040E1F700C0000087E00E
:103B400090EBDC0180937A0290937B02A0937C023D
:103B5000B0937D0288E19CE00FB6F894A89580931D
:103B600060000FBE90936000FFCFAF92BF92CF92E4
:103B7000DF92EF92FF920F931F93CF93C0E0CC247C
:103B8000C394D12CE82EF12C8C2F0E94310B5C01B8
:103B900010E000E0C601002E02C0880F991F0A94B1
:103BA000E2F78A219B21892B99F40F5F1F4F0C307C
:103BB000110581F7CF5FC43039F780E0CF911F91B5
:103BC0000F91FF90EF90DF90CF90BF90AF9008954E
:103BD000602F7C2F80E00E948907E816F90629F7FC
:103BE00081E0ECCFCF93C82F8CE20E94B51D8823D3
:103BF00021F08C2FCF910C94B51D80E0CF910895CA
:103C0000CF930E94891C811102C00E94631CC5E6EB
:103C1000C15009F0D1C089E20E94F21D8111F8C0A3
:103C20008AE20E94F21D81110E94631C85E00E94BD
:103C3000F21D81110E94931D0E94941C8093070223
:103C400087E00E94F21D882371F08BE10E94F21D33
:103C5000882309F4BAC090910702892F8D7F91FFC4
:103C6000826080930702809107020E94981C0E9444
:103C7000A61C90E090936B0280936A0280EE0E94F3
:103C8000F21D882341F090916A02892F8E7F90FF68
:103C9000816080936A0289E30E94F21D882341F0CB
:103CA00090916A02892F8D7F91FF826080936A02D2
:103CB00082EE0E94F21D882341F090916A02892FC2
:103CC0008B7F92FF846080936A0286EE0E94F21DD1
:103CD000882341F090916A02892F877F93FF886043
:103CE00080936A0283EE0E94F21D882341F0909136
:103CF0006A02892F8F7E94FF806180936A0285E338
:103D00000E94F21D882341F090916A02892F8F7DD5
:103D100095FF806280936A0281E30E94F21D8823EE
:103D200041F090916A02892F8F7B96FF8064809387
:103D30006A0281E10E94F21D882341F090916A029B
:103D4000892F97FB87F9805880936A0280916A02D5
:103D50000E94AA1C87E20E94F21DC82F8EE10E94D9
:103D6000F21D8111C2608FE10E94F21D8111C460B9
:103D700080E20E94F21D8111C86081E20E94F21D62
:103D80008111C06182E20E94F21D8111C06283E252
:103D90000E94F21D8111C06484E20E94F21D8823FA
:103DA00089F1C0688C2F0E94A11C6C2F70E090E0FC
:103DB00080E0CF910C9439190E94700A8FE39CE93E
:103DC0000197F1F700C0000023CF8EE00E94F21DA2
:103DD000882339F090910702892F8B7F92FF8460AE
:103DE00040CF80E10E94F21D90910702882329F0C4
:103DF000892F877F93FF886034CF892F8E7F90FF34
:103E000081602FCFC111CECF0E949D1C682FCECFD5
:103E1000CF91089580910B0280FF12C0609106013E
:103E200085E0689FB0011124759567957595679534
:103E300060387105A8F561157105A1F1862F089507
:103E400081FF09C06091060185E0689FB0011124DF
:103E500075956795EDCF82FF07C06091060185E0FB
:103E6000689FB0011124E4CF20910C022223A9F015
:103E7000909105016091060185E0689FB0011124D1
:103E80002917B0F6269FA001279F500D1124692FF6
:103E900070E0CA010E94F529CBCF65E070E0CECF7B
:103EA0008FE7089581E0089580910B0280FF0CC098
:103EB0006091040170E0759567957595679561153A
:103EC000710549F1862F089581FF06C060910401B4
:103ED00070E075956795F3CF6091040182FD0BC08A
:103EE00090910C029923A1F060910301809104014B
:103EF000961738F0682F70E06038710500F38FE78F
:103F00000895899FC001112470E00E94F529F4CF23
:103F100061E070E0D7CF81E00895803F31F40E94E6
:103F20000A1F819580930F020895813F19F40E9422
:103F30000A1FF8CF823F31F40E940A1F81958093B7
:103F40000E020895833F19F40E940A1FF8CF893F9B
:103F500029F40E94541F8093100208958A3F21F48F
:103F60000E94541F8195F7CF8B3F31F40E94541F5C
:103F700081958093110208958C3F19F40E94541F7B
:103F8000F8CF843F31F480910D02816080930D025F
:103F90000895853F21F480910D028260F7CF863F1E
:103FA00021F480910D028460F1CF873F21F480914C
:103FB0000D028860EBCF883F21F480910D02806173
:103FC000E5CF8D3F31F480910B02816080930B022D
:103FD00008958E3F21F480910B028260F7CF8F3FCE
:103FE000B9F780910B028460F1CF803FC1F48091DA
:103FF0000F0287FD10920F0280910E0281110EC0F8
:1040000080910F0281110AC080911002811106C0B7
:1040100080911102811102C010920C020895813F1B
:1040200029F480910F0218162CF3E6CF90910E021E
:10403000823F29F497FFE0CF10920E02DDCF833F3D
:1040400019F41916CCF3D8CF893F39F480911002B6
:10405000181694F610921002CFCF8A3F29F480915F
:10406000100287FFC9CFF6CF8B3F39F48091110240
:1040700087FFC2CF10921102BFCF8C3F29F48091ED
:1040800011021816BCF3B8CF843F31F480910D02B1
:104090008E7F80930D02B0CF853F21F480910D0279
:1040A0008D7FF7CF863F21F480910D028B7FF1CF7A
:1040B000873F21F480910D02877FEBCF883F21F469
:1040C00080910D028F7EE5CF8D3F31F480910B0200
:1040D0008E7F80930B0290CF8E3F21F480910B0254
:1040E0008D7FF7CF8F3F09F087CF80910B028B7FB9
:1040F000F0CF8DE092E00E947C100E94381D9093DA
:104100000A028093090208951F93CF93DF93809151
:10411000090290910A020E94441DAC0190910C0288
:104120002091070130E0911106C0209108018AE03A
:10413000289F900111244217530780F080910E02AE
:10414000C0910F0210911002D091110281110AC08A
:10415000C11178C0111176C0D11174C0DF91CF9117
:104160001F9108959F3F19F09F5F90930C021816BE
:1041700024F40E940A1F80930E0280910E0287FF92
:1041800005C00E940A1F819580930E021C1624F41C
:104190000E940A1F80930F0280910F0287FF05C0C3
:1041A0000E940A1F819580930F0260910E02662380
:1041B00031F1C0910F02CC2311F1062E000C770BC8
:1041C000880B990B0E94E82823E333E343E35FE382
:1041D0000E944C290E94B02860930E026C2FCC0FD5
:1041E000770B880B990B0E94E82823E333E343E322
:1041F0005FE30E944C290E94B02860930F021116C1
:1042000024F40E94541F809310028091100287FFB3
:1042100005C00E94541F8195809310021D1624F43E
:104220000E94541F809311028091110287FF05C0E4
:104230000E94541F819580931102DF91CF911F91AD
:104240000C9479209F3F09F08FCFA0CF85E0EDE05F
:10425000F2E0DF011D928A95E9F710920C021092AC
:104260000B0208950E94891C811102C00E94631CE8
:104270000E94AF1C80936C0280FF03C086950C9453
:10428000580780E0FCCF80916C02982F9695933070
:1042900030F49F5F990F8170892B80936C0280911D
:1042A0006C02816080936C020E94B31C80916C024E
:1042B00086950C94580780916C02982F9E7F79F018
:1042C000825080936C028E7F91E009F490E080919F
:1042D0006C0290FB80F980936C020E94B31C809169
:1042E0006C0286950C94580790916C02892F8E7FF2
:1042F00090FF816080936C020E94B31C80916C02DD
:1043000080FF03C086950C94580780E0FCCF909105
:104310006C02892F86958F5F8F7791708430B8F407
:10432000880F892B80936C0280916C028E7F91E0C4
:1043300009F490E080916C0290FB80F980936C020C
:104340000E94B31C80916C0286950C945807909340
:104350006C02EACF90916C02292F26958227880F54
:104360009170982B90936C029E7F21E009F420E0DD
:1043700080916C0220FB80F980936C020E94B31C38
:1043800080916C0286950C945807809132020895B2
:10439000CF93DF9300D01F92CDB7DEB79C01809101
:1043A0007102843019F593E099833B832A839093BB
:1043B000E9008FEF9091E800815095FD06C095EDE2
:1043C0009A95F1F700008111F5CF8091E80085FF03
:1043D0000DC050E040E063E070E0CE0101960E9425
:1043E00025248091E8008E778093E8000F900F904D
:1043F0000F90DF91CF910895CF93DF9300D01F925C
:10440000CDB7DEB720917102243031F522E0298347
:10441000805891099B838A8383E08093E9008FEF22
:104420009091E800815095FD06C095ED9A95F1F7C1
:1044300000008111F5CF8091E80085FF0DC050E0AC
:1044400040E063E070E0CE0101960E942524809157
:10445000E8008E778093E8000F900F900F90DF9127
:10446000CF9108959C01809171028430F9F482E02B
:104470008093E9009FEF8091E800915085FD06C090
:1044800085ED8A95F1F700009111F5CF8091E80054
:1044900085FF0CC050E040E065E070E0C9010E947B
:1044A00025248091E8008E778093E8000895CF93CB
:1044B000DF93EC01809171028430F1F4909113014B
:1044C0009923E9F090916A0297FF19C08093E9005F
:1044D0008FEF9091E800815095FD06C095E19A9587
:1044E000F1F700008111F5CF8091E80050E040E045
:1044F00060E270E085FD1AC0DF91CF91089581E000
:104500008093E9008FEF9091E800815095FD06C0FF
:1045100095ED9A95F1F700008111F5CF8091E800B3
:1045200085FFEACF50E040E068E070E0CE010E94F5
:1045300025248091E8008E778093E80080E2FE01D8
:10454000A2E1B2E001900D928A95E1F7D5CF80917A
:104550007002811109C00E94B5250E941226809127
:10456000E20084608093E200089510927002089542
:10457000089508950C94FE1C42E061EC81E00E94D5
:10458000332542E061EC82E00E94332542E061EC99
:1045900083E00E94332542E261EC84E00C943325F1
:1045A00080917302833009F455C030F4813071F189
:1045B000823009F491C008958A3009F47DC08B30AF
:1045C00009F463C0893009F044C0809172028132DD
:1045D00009F03FC08091760290917702009711F028
:1045E0000397B9F58091E800877F8093E800809178
:1045F000E80082FF2AC08091F1008093320280910E
:10460000E8008B778093E8000C9467258091720214
:10461000813AF9F48091E800877F8093E8008091E7
:10462000760290917702892B61F460E282E192E058
:1046300070E00E9474248091E8008B778093E800FA
:10464000089560E090E080E0F3CF809171028111E5
:10465000CECF089580917202813AD9F78091760287
:1046600090917702892BA9F78091E800877F80934A
:10467000E8008091E80080FFFCCF809113018093D7
:10468000F1008091E8008E77BDCF80917202813277
:1046900001F78091760290917702892BD1F6809173
:1046A000E800877F8093E8000E946725809174026C
:1046B000809313010C94651580917202813249F642
:1046C0008091E800877F8093E8000E9467258091B1
:1046D000750280933302089580917202813A09F045
:1046E000B8CF8091E800877F8093E8008091E80050
:1046F00080FFFCCF80913302C2CF84B7877F84BF15
:104700000FB6F894A895809160008861809360004E
:10471000109260000FBE80E88093610010926100EB
:104720000E94B4100E94B5250E9412268091E200DA
:1047300084608093E20078940E9494280E94B610CE
:1047400089E091E00E94601080917102853029F02B
:104750000E94C0100E942D10F7CF0E94B81C8091BB
:104760006F02882389F30E94E91C882369F30E9461
:104770000F24EACF292F33272330310579F158F45C
:1047800021303105F1F02230310519F190E080E05F
:1047900030E020E01AC02132310599F12232310592
:1047A000A9F7643098F770E0FB01EE0FFF1FE85D9A
:1047B000FE4F208131816C5D7E4FFB01808190E056
:1047C00004C082E190E028E639E0FA0131832083D9
:1047D00008958DE690E02BEF38E0F7CF99278130F0
:1047E000910561F028F0029789F6EBECF8E002C041
:1047F000E7EFF8E0849190E09F01E7CFEFEDF8E07C
:10480000F9CF643008F0C2CFE62FF0E0EE0FFF1FC3
:10481000E05DFE4F2081318189E090E0D6CF80E1DC
:1048200089BD82E189BD09B400FEFDCF8091D80029
:104830008F7D8093D8008091E00082608093E000BB
:104840008091E00081FDFCCF0895AF92BF92CF929E
:10485000DF92FF920F931F93CF93DF936C01EB01D5
:104860008A010E948625F82E811123C001151105A9
:1048700039F0F80180819181C81BD90BC80ED91E6F
:10488000B12CA12C2097A9F08091E80085FD22C0D1
:104890008091E8008E778093E80001151105A1F062
:1048A000F80180819181A80EB91EB182A08285E0B5
:1048B000F82E8F2DDF91CF911F910F91FF90DF90F8
:1048C000CF90BF90AF9008950E9486258823D1F2A3
:1048D000F82EEFCFF60181916F018093F1002197BF
:1048E000FFEFAF1ABF0ACECFFC0180917802909102
:1048F000790286179707A0F06115710529F4909148
:10490000E8009E779093E80090E06115710551F4FE
:10491000911108C08091E80082FF35C080E00895C1
:10492000BC01F2CF809171028823C9F18530C9F1B1
:104930008091E80083FD31C08091E80082FDEACFDC
:104940008091E80080FFE1CF2091F3008091F20098
:10495000322F282F6115710519F02830310558F0D4
:1049600091E02830310509F090E02091E8002E77A1
:104970002093E800CACF81918093F10061507109C2
:104980002F5F3F4FE7CF80917102882341F0853040
:1049900041F08091E80083FFBDCF81E0089582E07F
:1049A000089583E00895FC01809178029091790246
:1049B00086179707A0F06115710529F48091E8002A
:1049C0008E778093E80090E06115710551F49111A4
:1049D00008C08091E80082FF36C080E00895BC01E5
:1049E000F2CF809171028823D1F18530D1F180918D
:1049F000E80083FD32C08091E80082FDEACF80911B
:104A0000E80080FFE1CF2091F3008091F200322F87
:104A1000282F6115710519F02830310558F091E003
:104A20002830310509F090E08091E8008E7780937E
:104A3000E800CACF84918093F100319661507109EA
:104A40002F5F3F4FE6CF80917102882341F0853080
:104A500041F08091E80083FFBCCF81E0089582E0BF
:104A6000089583E00895982F973028F08F708093F1
:104A7000E90081E008959093E900242F762F50E01B
:104A8000981731F07091EC002091ED005091F000FA
:104A900021FD02C09F5FE8CF3091EB003E7F309355
:104AA000EB003091ED003D7F3093ED003091EB0055
:104AB00031603093EB007093EC002093ED00509345
:104AC000F0002091EE0027FDE5CF80E00895809171
:104AD000720287FF13C08091E80082FF06C08091B8
:104AE000E8008B778093E80004C080917102811107
:104AF000F2CF0895809171028823D9F38091E80064
:104B000080FFF8CF8091E8008E77ECCF2091E40011
:104B10003091E50085E69091EC0090FF06C0909101
:104B2000E80090FF06C080E008959091E80092FDB3
:104B3000FACF90917102992391F0953091F0909174
:104B4000EB0095FD10C04091E4005091E500241762
:104B5000350709F381509A01F1F684E0089582E067
:104B6000089583E0089581E008950E9423260E941D
:104B70002B26E0EEF0E0808181608083E8EDF0E0BC
:104B800080818F77808319BCA7EDB0E08C918E7FF8
:104B90008C9380818F7E80831092700208950F9392
:104BA0001F93CF93DF930E9423260E942B26C8EDEC
:104BB000D0E088818F778883888180688883888126
:104BC0008F7D888319BC1092710210926D02109231
:104BD0006F0210926E0200EE10E0F80180818B7F70
:104BE000808388818160888342E060E080E00E9469
:104BF0003325E1EEF0E080818E7F8083E2EEF0E00D
:104C0000808181608083808188608083F8018081D9
:104C10008E7F8083888180618883DF91CF911F910F
:104C20000F910895E8EDF0E080818F7E8083E7EDBD
:104C3000F0E080818160808384E082BF81E08093A6
:104C400070020C94CF25E8EDF0E080818E7F8083A8
:104C50001092E20008951092DA001092E100089597
:104C60001F920F920FB60F9211242F933F934F93E1
:104C70005F936F937F938F939F93AF93BF93EF93C4
:104C8000FF938091E10082FF0BC08091E20082FFE0
:104C900007C08091E1008B7F8093E1000E94932800
:104CA0008091DA0080FF19C08091D80080FF15C084
:104CB0008091DA008E7F8093DA008091D90080FFA6
:104CC00094C080E189BD82E189BD09B400FEFDCFB9
:104CD00081E0809371020E94A7228091E10080FF11
:104CE00019C08091E20080FF15C08091E2008E7FA4
:104CF0008093E2008091E20080618093E2008091E5
:104D0000D80080628093D80019BC85E0809371023E
:104D10000E94B9228091E10084FF29C08091E200C5
:104D200084FF25C080E189BD82E189BD09B400FE10
:104D3000FDCF8091D8008F7D8093D8008091E100D5
:104D40008F7E8093E1008091E2008F7E8093E2006D
:104D50008091E20081608093E20080916D0288235F
:104D600009F449C084E0809371020E94BA228091C4
:104D7000E10083FF29C08091E20083FF25C080917C
:104D8000E100877F8093E10082E0809371021092BE
:104D90006D028091E1008E7F8093E1008091E200BE
:104DA0008E7F8093E2008091E20080618093E20038
:104DB00042E060E080E00E9433258091F00088604E
:104DC0008093F0000E94B822FF91EF91BF91AF91C4
:104DD0009F918F917F916F915F914F913F912F9113
:104DE0000F900FBE0F901F90189519BC1092710272
:104DF0000E94B52272CF8091E30087FD02C081E05E
:104E0000B2CF83E0B0CF1F920F920FB60F92112452
:104E10002F933F934F935F936F937F938F939F93C2
:104E2000AF93BF93CF93EF93FF93C091E900CF70FF
:104E30008091EC001092E9008091F000877F8093D0
:104E4000F00078940E943F271092E9008091F000D2
:104E500088608093F000C093E900FF91EF91CF91BB
:104E6000BF91AF919F918F917F916F915F914F9182
:104E70003F912F910F900FBE0F901F9018951F9389
:104E8000CF93DF93CDB7DEB7AA970FB6F894DEBF06
:104E90000FBECDBFE2E7F2E08091F100819322E006
:104EA000EA37F207C9F70E94D0228091E80083FF19
:104EB00042C080917202909173029A3008F03BC018
:104EC000E92FF0E0EA59F84D0C94092A702794274D
:104ED0009B2794279B27EF2711289B276628732859
:104EE000803879F0823839F5809176028F7080931E
:104EF000E9008091EB0085FB882780F91092E9009A
:104F000006C080916E0290916F0291118260909123
:104F1000E800977F9093E8008093F1001092F100F1
:104F20008091E8008E772DC0282F2D7F21F48823D3
:104F3000D1F0823059F18091E80083FF0AC080915E
:104F4000E800877F8093E8008091EB008062809387
:104F5000EB00AA960FB6F894DEBF0FBECDBFDF916F
:104F6000CF911F91089580917402813021F7933081
:104F700009F080E080936F021092E9008091E800D0
:104F8000877F8093E8000E946725D5CF80917402C7
:104F90008111F2CF809176028F7069F28093E900DF
:104FA0002091EB0020FFE8CF933031F48091EB00AB
:104FB00080628093EB00E0CF9091EB009061909342
:104FC000EB0021E030E001C0220F8A95EAF7209340
:104FD000EA001092EA008091EB008860EACF81112C
:104FE000AACF109174021F778091E3008078812B03
:104FF0008093E3008091E800877F8093E8000E941F
:1050000067258091E80080FFFCCF8091E3008068F5
:105010008093E30083E0111101C082E0809371026C
:105020008ACF8058823008F086CF809174029091A8
:1050300075028C3D23E09207A1F583E08A838AE222
:1050400089834FB7F894DE01139620E03EE051E2E9
:10505000E32FF0E050935700E49120FF03C0E29566
:10506000EF703F5FEF708E2F90E0EA30C0F0C79690
:105070008D939D932F5F243159F74FBF8091E800A6
:10508000877F8093E8006AE270E0CE0101960E947B
:1050900074248091E8008B778093E8004CCFC09611
:1050A000E7CFAE014F5F5F4F609176020E94BA2357
:1050B000BC01892B09F43FCF9091E800977F909332
:1050C000E80089819A810E94D324E3CF803809F0D7
:1050D00032CF8091E800877F8093E80080916D0255
:1050E0008093F1001DCF811126CF909174029230F0
:1050F00008F021CF8091E800877F8093E8009093AB
:105100006D020E94672580916D02882331F084E052
:10511000809371020E94BC220ECF8091E30087FD34
:10512000F6CF81E0F5CF0895CF9380917102882367
:1051300099F0C091E900CF708091EC0080FD0EC025
:1051400080E0C82B1092E9008091E80083FD0E9466
:105150003F27CF70C093E900CF91089580E8F1CF49
:105160000E94B7286894B1110C94462908950E94B2
:105170002B2988F09F5798F0B92F9927B751B0F095
:10518000E1F0660F771F881F991F1AF0BA95C9F7CB
:1051900014C0B13091F00E944529B1E008950C94FB
:1051A0004529672F782F8827B85F39F0B93FCCF3AE
:1051B000869577956795B395D9F73EF49095809548
:1051C000709561957F4F8F4F9F4F0895E89409C068
:1051D00097FB3EF490958095709561957F4F8F4F2A
:1051E0009F4F9923A9F0F92F96E9BB279395F69540
:1051F000879577956795B795F111F8CFFAF4BB0FBE
:1052000011F460FF1BC06F5F7F4F8F4F9F4F16C021
:10521000882311F096E911C0772321F09EE8872FAB
:10522000762F05C0662371F096E8862F70E060E067
:105230002AF09A95660F771F881FDAF7880F9695E0
:10524000879597F9089557FD9058440F551F59F0C9
:105250005F3F71F04795880F97FB991F61F09F3F63
:1052600079F087950895121613061406551FF2CF8C
:105270004695F1DF08C0161617061806991FF1CFDC
:1052800086957105610508940895E894BB27662703
:105290007727CB0197F908950E945F290C94D029B4
:1052A0000E94C22938F00E94C92920F0952311F0EC
:1052B0000C94B9290C94BF2911240C9446290E94FE
:1052C000232970F3959FC1F3950F50E0551F629FFE
:1052D000F001729FBB27F00DB11D639FAA27F00D4F
:1052E000B11DAA1F649F6627B00DA11D661F829F76
:1052F0002227B00DA11D621F739FB00DA11D621F5B
:10530000839FA00D611D221F749F3327A00D611D77
:10531000231F849F600D211D822F762F6A2F112459
:105320009F5750409AF0F1F088234AF0EE0FFF1F8C
:10533000BB1F661F771F881F91505040A9F79E3FE3
:10534000510580F00C94B9290C9446295F3FE4F391
:10535000983ED4F3869577956795B795F795E79539
:105360009F5FC1F7FE2B880F911D9695879597F942
:10537000089597F99F6780E870E060E008959FEFD7
:1053800080EC089500240A941616170618060906DC
:10539000089500240A9412161306140605060895AB
:1053A000092E0394000C11F4882352F0BB0F40F433
:1053B000BF2B11F460FF04C06F5F7F4F8F4F9F4F73
:1053C0000895AA1BBB1B51E107C0AA1FBB1FA6174C
:1053D000B70710F0A61BB70B881F991F5A95A9F79E
:1053E00080959095BC01CD01089597FB072E16F48A
:1053F000009407D077FD09D00E94E12907FC05D071
:105400003EF4909581959F4F0895709561957F4FDB
:105410000895EE0FFF1F0590F491E02D0994F9997E
:10542000FECF92BD81BDF89A992780B50895A6E177
:10543000B0E044E050E00C94492AA8E1B0E042E03A
:1054400050E00C94492A262FF999FECF92BD81BDD8
:10545000F89A019700B4021639F01FBA20BD0FB6B2
:10546000F894FA9AF99A0FBE08950396272F0E948E
:10547000242A0E94232A252F0E94242A242F0C94B8
:10548000242A0196272F0E94242A0C94232ADC0127
:10549000CB01FC01F999FECF06C0F2BDE1BDF89A3F
:1054A000319600B40D9241505040B8F70895F894E9
:0254B000FFCF2C
:1054B200FFE4012808140A321EC52157223222FCB9
:1054C20021C82101F0F1F4F5F6F733313095376751
:1054D20090919293404D3639360AE909B3097A0917
:0854E2000D0926093F095809D4
:00000001FF
