:100000000C9490050C94D4050C94D4050C94D40550
:100010000C94D4050C94D4050C94D4050C94D405FC
:100020000C94D4050C94D4050C94BF270C949128FF
:100030000C943F1E0C94D4050C94D4050C94D40558
:100040000C94D4050C94D4050C94D4050C94D405CC
:100050000C94D4050C94A61E0C94D4050C94D405D1
:100060000C94D4050C94D4050C94D4050C94D405AC
:100070000C94D4050C94D4050C94D4050C94D4059C
:100080000C94D4050C94D4050C94D4050C94D4058C
:100090000C94D4050C94D4050C94D4050C94D4057C
:1000A0000C94D4050C94D4050C94D40595069B06A9
:1000B0009F06A206A606AA06AE06B206B706BB06AD
:1000C000BF06C306C606CA06CE06D206D606DB069D
:1000D0006E146E14A114A114E114031552165216D5
:1000E0000E155216B515B5151F16271652164D16B4
:1000F000C215C215C215C215C215C215C215C21548
:10010000C215C215C215C215C215C215C215C21537
:10011000D215E215E915F015FA15D216D216E51624
:10012000E516DB16E516E516E516D216D216E1162B
:10013000E516E516E116F6281829032A1829032AD8
:100140005A297D29032AD229E52901E0011902193A
:1001500002E00001E00106020602E00000F02B00D0
:1001600014001A00090013000A000D000F00180007
:100170001C0033002A002944040015001600170053
:1001800007000B00110008000C0012003443E100CE
:100190001D001B000600190005000E0010003600AF
:1001A00037003800E500E000E3000551E200284296
:1001B0002C0000000451E100E600E700E4002B0001
:1001C00014001A000800150017001C0018000C008D
:1001D000120013002A002944040016000700090039
:1001E0000A000B000D000E000F0033003443E10045
:1001F0001D001B000600190005001100100036004C
:1002000037003800E500E000E3000551E200284235
:100210002C0000000451E6006500E700E400350012
:100220001E021F02200221022202230224022502B2
:100230002602270201002900260227022F0230028F
:100240004A005000510052004F004D002E000100A6
:10025000310035022302210200002D002E002F0064
:100260003000310001000100010001000100010027
:100270000100010001000100010001000100350042
:100280001E021F0220022102220223022402250252
:100290002602270201002900260227022F0230022F
:1002A0004A005000510052004F004D000100010073
:1002B000310035022302210200002D002E002F0004
:1002C00030003100010001000100010001000100C7
:1002D00001000100010001000100010001003500E2
:1002E0001E001F0020002100220023002400250002
:1002F0002600270001000100260227022F003000FF
:10030000230221022100220023002E022D000100E1
:1003100031003502230221022E0037001E001F008B
:100320002000250201000100010001000100010080
:1003300001000100010001000100010001000100B5
:100340003A003B003C003D000000A800AA00A900C4
:10035000010001004C0029003E003F004000410028
:100360000000AC00AE00AD00AB00000031000100A9
:100370004200430044004500000000004B004E00D6
:1003800049004600010001000100010001000100D8
:1003900001000100065101000100010001001050A0
:1003A0000100010001000100010001000100010045
:1003B0000100010011500100C15CC05CC35CC25C63
:1003C0000100010001000100010001000100010025
:1003D000BE5CBF5CC55CC45C0100010001000100A3
:1003E0000100010001000100010001000100010005
:1003F000010001000100010001000100005C01009A
:1004000001000100010001000100010001000100E4
:1004100001000100010001000100010001000100D4
:1004200001000100010001000100010001000100C4
:1004300001000100010001000100010001000100B4
:100750000100010001000100010001000100680129
:10076000F000B40078005A00643214643214783C0B
:100770001E1E140A0500000000010101020203040C
:1007800005050607090A0B0C0E0F1112141517198F
:100790001B1D1F212325282A2C2F313436393B3E9F
:1007A000414346494C4F5255585A5D6164676A6DE2
:1007B000707376797C7F8386898C8F9295989B9EC7
:1007C000A2A5A7AAADB0B3B6B9BCBEC1C4C6C9CBB9
:1007D000CED0D3D5D7DADCDEE0E2E4E6E8EAEBED32
:1007E000EEF0F1F3F4F5F6F8F9FAFAFBFCFDFDFE94
:1007F000FEFEFFFFFFFFFFFFFFFEFEFEFDFDFCFB19
:10080000FAFAF9F8F6F5F4F3F1F0EEEDEBEAE8E6D2
:10081000E4E2E0DEDCDAD7D5D3D0CECBC9C6C4C1A2
:10082000BEBCB9B6B3B0ADAAA7A5A29E9B9895923F
:100830008F8C898683807C797673706D6A6764613A
:100840005D5A5855524F4C494643413E3B39363428
:10085000312F2C2A282523211F1D1B19171514128F
:10086000110F0E0C0B0A090706050504030202010D
:100870000101000000000000000001010101010170
:100880000101010202020202020202020303030347
:100890000303030304040404040405050505050615
:1008A0000606060607070707080808080909090ACF
:1008B0000A0A0A0B0B0B0C0C0C0D0D0D0E0E0F0F74
:1008C0000F101011111112121313141415151616FE
:1008D0001717181819191A1A1B1C1C1D1D1E1F1F6B
:1008E00020202122222324252526272728292A2BB8
:1008F0002B2C2D2E2F2F30313233343536363738DE
:10090000393A3B3C3D3E3F404142434446474849DB
:100910004A4B4C4D4F50515253555657585A5B5CA9
:100920005E5F606263646667696A6C6D6E70717346
:10093000747678797B7C7E8081838486888A8B8DAF
:100940008F91929496989A9B9D9FA1A3A5A7A9ABDE
:10095000ADAFB1B3B5B7B9BBBDBFC1C4C6C8CACCD2
:10096000CFD1D3D6D8DADCDFE1E4E6E8EBEDF0F284
:10097000F5F7FAFCFF12036B006500790062006F67
:10098000006100720064000000160371006D006BCE
:10099000006200750069006C006400650072000070
:1009A000000403090409026D00040100A0FA09040F
:1009B0000000010301010009211101000122400092
:1009C0000705810308000A09040100010301020070
:1009D000092111010001224D000705820308000AC8
:1009E0000904020001030000000921110100012295
:1009F00036000705830308000A0904030001030009
:100A0000000009211101000122390007058403209B
:100A100000011201100100000008EDFE60600100FD
:100A20000102000105010906A101050719E029E7F6
:100A30001500250195087501810205081901290590
:100A4000950575019102950175039101050719003E
:100A500029F71500250195F875018102C0050109E6
:100A600080A10185021601002603001A81002A8355
:100A700000751095018100C0050C0901A1018503D5
:100A8000160100269C021A01002A9C02751095018D
:100A90008100C005010902A1010901A10005091990
:100AA000012905150025019505750181029501753E
:100AB0000381010501093009311581257F950275F2
:100AC00008810609381581257F950175088106057D
:100AD0000C0A38021581257F950175088106C0C072
:100AE00005010906A101050719E029E715002501FF
:100AF00095087501810295017508810105081901A4
:100B00002905950575019102950175039101050768
:100B1000190029FF150026FF00950675088100C001
:100B200011241FBECFEFDAE0DEBFCDBF04B603FE57
:100B300024C080917E0290917F02A0918002B091AA
:100B400081028730904BA740B04BB9F410927E02DF
:100B500010927F02109280021092810214BE84B71C
:100B6000877F84BF88E10FB6F8948093600010926D
:100B700060000FBEE0E0F8E3099511E0A0E0B1E00D
:100B8000E6EAF7E502C005900D92A833B107D9F760
:100B900022E0A8E3B1E001C01D92AE37B207E1F751
:100BA0000E94F1240C94D12B0C940000613019F0B8
:100BB000623031F00CC0FC01828181110BC007C092
:100BC000FC018281882319F08AE491E0089580E095
:100BD00090E0089583E591E008950895089581E0F7
:100BE00008950895CF93DF93EC0161111BC00E941B
:100BF000241D8272809338019A81992341F08823C1
:100C000011F085E301C089E20E94A31C07C088237C
:100C100011F085E301C089E20E94E31CDF91CF91CE
:100C20000C94701DDF91CF91089581E008950C948C
:100C3000EF050E94C0162FEF84E39CE02150804016
:100C40009040E1F700C000000C94CC1EFF920F937F
:100C50001F93CF93DF938C01FC01C081D1818091E0
:100C60008601811113C08281882349F0CE010E9440
:100C7000041CF82E682FCE010E94AA1B04C0CE01CE
:100C80000E94D81BF82EBE018F2D04C0CE010E94F9
:100C9000041CBE010E941708EC01B8010E9417064F
:100CA000882309F476C1B801CE010E94650A882321
:100CB00009F46FC1C13CFCE5DF0741F4F801828112
:100CC000882309F466C10E94E30D63C1C23C8CE530
:100CD000D80708F0CCC0C5319CE5D90708F0A4C0FE
:100CE000C230ECE5DE0708F478C0F8018281882381
:100CF00009F47FC00E94C51D811102C00E949F1D82
:100D00000E94E21D90E090936F0280936E02FE01BC
:100D1000E350FC45E231F10520F4EA5AFF4F0C9410
:100D2000832B80916E02816003C080916E0282608D
:100D300080936E024BC080916E028460F9CF8091E7
:100D40006E0213C080916E028061F2CF80916E02BC
:100D50008062EECF80916E028064EACF80916E0255
:100D60008068E6CF80916E0284608860E1CF8091D8
:100D70006E028E7FDDCF80916E028D7FD9CF809104
:100D80006E028B7FD5CF80916E0213C080916E0270
:100D90008F7ECECF80916E028F7DCACF80916E0202
:100DA0008F7BC6CF80916E028F77C2CF80916E020B
:100DB0008B7F877FBDCF90916E0297FB882780F94C
:100DC00021E0822780FB97F990936E0280916E025A
:100DD0000E94E61D0E94C016DCC0C115FCE5DF07BD
:100DE00081F0C130DC45A9F081E080933D01809322
:100DF0003E01C801DF91CF911F910F91FF900C949C
:100E00001506F8018281882309F4C3C00E941906DF
:100E1000C0C0F8018281882309F4BBC080910A0216
:100E2000816080930A02B5C0CF3B9CE5D90741F4AD
:100E3000F8018281882309F4ACC00E94E90EA9C0A0
:100E4000C03CECE5DE0740F0F8018281882309F41C
:100E5000A0C00E94CA0D9DC0CE3BDC4529F6F8011A
:100E60008281882309F495C00E94F30E92C0C53C8C
:100E70008CE5D80741F4F8018281882309F489C000
:100E80000E94520E86C0C63C9CE5D907D8F4F801F2
:100E90008281C33CFCE5DF0731F4882309F479C083
:100EA0000E941D0E76C0C43CDC4530F4882309F452
:100EB00070C00E94020E6DC0882309F46AC00E94AF
:100EC000370E67C0C73CECE5DE0739F5F8018281D3
:100ED000882361F010923E010E94711E90933C01A4
:100EE00080933B0180E20E94231453C080913E0115
:100EF00081110FC080913B0190913C010E947D1EA9
:100F0000883C910530F487E20E940C1387E20E942E
:100F1000D41380E20E942A143CC0C73CFCE5DF07E2
:100F200018F5F8018281882351F010923D010E944A
:100F3000711E90933A018093390182E0D4CF809161
:100F40003D0181110FC08091390190913A010E94B9
:100F50007D1E883C910530F486E20E940C1386E2E7
:100F60000E94D41382E0D6CFCA3C8CE5D80731F476
:100F7000F8018281882369F080E009C0CB3CDC4520
:100F800009F032CFF8018281882319F082E00E94B3
:100F9000852580E0DF91CF911F910F91FF900895FB
:100FA0000C94B30A269A2E988FEF9FEF90938700A8
:100FB0008093860082E28093800089E180938100A3
:100FC0000C9487220E94D2070C94B10A81110AC0A6
:100FD000809180008F7D8093800010928B00109212
:100FE0008A000895833041F480918000806280936C
:100FF00080008FEF9FEF12C09091800090629093DD
:10100000800023E030E0281B3109220F331F8FEFCF
:101010009FEF02C0969587952A95E2F790938B00F3
:1010200080938A0008950C94F1050C9413089CE0B9
:10103000799FF001112490E3899FE00DF11D1124A7
:10104000E60FF11DEE0FFF1FE25AFE4F85919491BE
:101050000895880F991F845A9E4FFC0185919491A1
:1010600008950E9417080E94E809811521E592075A
:1010700008F042C0811540E5940708F016C1883E8B
:10108000910508F5803E910508F0A1C1883A9105C7
:1010900078F4853A910508F093C08130910509F400
:1010A00096C108F44DC18430910508F090C148C143
:1010B0008D3B910508F48FC0803C910508F440C138
:1010C000805C9109E2C0811520E3920778F48115D4
:1010D00040E2940708F0D8C0803F910508F430C181
:1010E0008F3F910509F008F4CDC00895811520E4E3
:1010F000920708F0D7C0CCC0811546E5940768F583
:10110000811525E5920708F006C1811543E594078E
:1011100050F4811522E5920708F0E3C0982F882744
:10112000816F906A0895811544E5940708F0EEC038
:10113000282F2695269540E2249F90011124AC018A
:101140004370552781E090E002C0880F991F4A95AF
:10115000E2F7822B932B9A6808958A3B2CE592073D
:1011600009F4E5C098F4811528E5920708F4E8C071
:10117000811549E5940708F4D3C08A3A2CE5920713
:1011800008F4DEC08A5A9C45946D08958D3B4CE569
:10119000940709F4D2C060F48B3B4CE5940709F442
:1011A000C9C08C3B9C4509F0CBC080E092ED08950E
:1011B0009C0130562115304208F0C2C09F71B5C065
:1011C000853A910509F4BFC0863A910509F4BEC07D
:1011D00083E890E40895883A910509F4BAC0893A01
:1011E000910509F4B9C08A3A910509F4B8C08B3A5F
:1011F000910509F4B7C08C3A910509F4B6C08B3B50
:10120000910509F4B5C08C3B910509F4B4C08D3A41
:10121000910509F4B3C0803B910509F4B2C08E3A40
:10122000910509F4B1C08F3A910509F4B0C0813B32
:10123000910509F4AFC0823B910509F4AEC0833B30
:10124000910509F4ADC0843B910509F4ACC0853B20
:10125000910509F4ABC0863B910509F4AAC0873B10
:10126000910509F4A9C0883B910509F4A8C0893B00
:10127000910509F4A7C08A3B910509F0A6C08AE24E
:1012800096E40895906508959F700E942908089536
:101290009C01332793FF03C0C901986C0895C901CD
:1012A000906C08959F70906A0895482F437021E0D4
:1012B00030E002C0220F331F4A95E2F73C68AC01D0
:1012C00074E0569547957A95E1F74370342B8F700B
:1012D0008695869540E2849FC0011124822B932B32
:1012E0000895282F2695269540E2249F90011124E9
:1012F000AC014370552781E090E002C0880F991F30
:101300004A95E2F7822B932B9C680895982F8827A3
:10131000846F906A08958F719927982F882705C048
:10132000982F8827806F906A08959062089580E0D2
:1013300091ED089580E090ED089580E093ED08959B
:1013400080E090E0089581E890E4089582E890E4D8
:10135000089582EE94E4089589EE94E408958AEE67
:1013600094E4089585EB94E4089586EB94E408955D
:1013700083EB94E4089584EB94E4089587EB94E47C
:1013800008958CEC94E408958DEC94E4089583E83A
:1013900095E408958AE895E4089582E995E408952E
:1013A00084E995E4089581E296E4089583E296E461
:1013B000089584E296E4089585E296E4089586E22D
:1013C00096E4089587E296E4089580E094E4089511
:1013D0008238910549F1B0F48133910509F459C07F
:1013E00048F48932910509F44FC08A32910509F415
:1013F00055C008958533910509F441C0893391059D
:1014000099F00895833E910531F138F4803E9105BD
:1014100091F0823E9105A9F00895863E910501F173
:10142000873E910539F1089520916E0220FD3BC061
:1014300021FD39C0089580916E0280FF34C089E398
:1014400041C080916E0282FF32C080916E0284FFA3
:101450002CC080E037C080916E0282FD28C0F5CF9D
:1014600080916E0283FF25C080916E0284FDF1CFD2
:1014700087EE28C080916E0283FD1BC0F5CF80915E
:101480006E0285FF18C019C080916E0285FF15C0DD
:1014900012C080916E0286FF12C013C080916E024E
:1014A00086FF0FC00CC080EE0DC083EE0BC082EE35
:1014B00009C086EE07C085E305C089E203C081E369
:1014C00001C08AE290E008950895CF93DF93EC0184
:1014D000FB018281811102C081E040C080914C01FA
:1014E000811125C0C531DC45B9F70E94640A81E04D
:1014F00080934C010E94711E90934B0180934A018E
:1015000010923F011092410110924001109243014C
:10151000109242011092450110924401109247012D
:1015200010924601109249011092480116C0809114
:101530004A0190914B010E947D1E883C910560F606
:1015400080913F01E82FF0E0EE0FFF1FE05CFE4FBF
:10155000D183C0838F5F80933F0180E0DF91CF9183
:1015600008950C94ED050C94EE0585B7806885BF51
:1015700085B7806885BFA0E2B1E021E030E08D91C1
:10158000E82FE295EF70F0E041A18F70B90102C041
:10159000660F771F8A95E2F7CB01962F9095492326
:1015A00041A392A1982B92A371E0A432B70739F717
:1015B000A4E1B1E021E030E08D91E82FE295EF70F9
:1015C000F0E041A18F70B90102C0660F771F8A95C4
:1015D000E2F7CB01962F9095492341A392A1982B36
:1015E00092A371E0A032B70739F71092560110921A
:1015F000550110924E0110924D0110925801109217
:1016000057011092500110924F0110925A011092FE
:101610005901109252011092510110925C011092E6
:101620005B0110925401109253010C94E2074F9207
:101630005F927F928F929F92AF92BF92CF92DF92F2
:10164000EF92FF920F931F93CF93DF9300E211E08D
:10165000CDE4D1E0EE24E394F12C99249394BE01DF
:10166000A880B98019821882D8012D918D01E22FAE
:10167000E295EF70F0E081A12F70A70102C0440F46
:10168000551F2A95E2F79A01842B81A382A1842E0B
:101690008094882182A350EA5A95F1F744E1442EC0
:1016A00041E0542E80E090E0D2014D912D01C42EF6
:1016B000C2943FE0C322D12CD60190967C90C88082
:1016C000D9804F70D70102C0AA0FBB1F4A95E2F71D
:1016D0007A2241F4A701082E02C0440F551F0A9434
:1016E000E2F702C040E050E04C295D29598348836D
:1016F00001968C309105C1F681A1882181A382A138
:10170000822B82A32296FB0180819181A816B906C3
:1017100041F090925D010E94711E90935F01809351
:101720005E01F1E004321F0709F099CF80915D015D
:10173000882351F180915E0190915F010E947D1E8E
:10174000069710F180914D0190914E0190935601B2
:101750008093550180914F019091500190935801D1
:1017600080935701809151019091520190935A01B9
:1017700080935901809153019091540190935C01A1
:1017800080935B0110925D010E94D00781E0DF91A0
:10179000CF911F910F91FF90EF90DF90CF90BF906E
:1017A000AF909F908F907F905F904F900895E82F1B
:1017B000F0E0EE0FFF1FEB5AFE4F808191810895FC
:1017C00008953EB1242F209523233EB1342B4FB7EB
:1017D000F894FC01680F791FE617F70789F08191EB
:1017E00098E03EB9000000C087FF2EB9880F0000C6
:1017F00000C000C000C02EB900C09A9591F7ECCF90
:101800004FBF08952DB1242B2DB99B01220F331FFB
:10181000260F371FB9010E94E10B87EC90E001977A
:10182000F1F700C00000089544E00C94020CDF9230
:10183000EF92FF920F931F93CF93DF93662309F4E8
:101840004AC0E42FF0E0AFEFB0E0A61BB109BF0142
:10185000A69FE001A79FD00DB69FD00D1124FD2FAC
:10186000DD2E7B01ED1AF1080CE310E0B8010E94B7
:101870005B2BEB01BC01E69EC001E79E900DF69E3E
:10188000900D1124B8010E945B2BC230D105B1F03C
:1018900040F4209779F0219709F58F2FD42E461B1D
:1018A00020C0C430D10599F068F02597B9F4842F91
:1018B000861B17C08F2FD62EDF0E13C0862F8F0FDB
:1018C000D42E03C0D42ED61A842F4F2F0AC0842FB3
:1018D000462F4F0F06C0842FD42E03C080E0D12C9A
:1018E00040E0E42FF0E0EB58F74F4491ED2DF0E0AD
:1018F000EB58F74F9491E82FF0E0EB58F74FE49155
:10190000D90111964C9311979C931296EC93DF9109
:10191000CF911F910F91FF90EF90DF90089588E095
:1019200090E00C94912BAB01BC0188E090E00C940A
:10193000AF2B83E080933802109239028FEF8093AF
:101940003A0280933B026091380270913902809193
:101950003A0290913B020C94930C8091380280FFE4
:1019600006C06EE070E080E492E00C94140CE2E4B7
:10197000F2E0DF0111971C9211971C9210823396AE
:1019800082E0EC36F807A9F7ECCFE2E4F2E0DF0101
:1019900011978C9311976C934083339692E0EC36B9
:1019A000F907A9F70C94AD0CCF92DF92EF92FF925A
:1019B0000F931F93CF93DF9300D01F92CDB7DEB765
:1019C000F82EC92ED62EE42E00913802109139023D
:1019D00020913A0230913B0200933C0210933D0269
:1019E00020933E0230933F028091380280FF1EC058
:1019F0009E012F5F3F4F8F2D0E94170C80913C025C
:101A0000F0FA87F980933C02F69420913D02207809
:101A10002F29C0FA27F920933D02D0923E02E0928E
:101A20003F024B8169818A810E94C50C0F900F9003
:101A30000F90DF91CF911F910F91FF90EF90DF906A
:101A4000CF9008958F929F92AF92BF92CF92DF92E4
:101A5000EF92FF920F931F93CF93DF93EC01862EAB
:101A6000942E8091380280FF88C0982F9E77923004
:101A700021F4CE010E94D40C56C0E82FE695EF73F6
:101A80009EE39E0F9F73943018F490903B024BC0DE
:101A90009AE39E0F9F73993070F4881F8827881FE0
:101AA00090913902292F220FC22FC82B97FB99271B
:101AB00090F9D92F38C087E28E0F8F738A3098F54E
:101AC000F0E07997E0FF02C02FEF01C021E0EE7F48
:101AD000E25AF84F859194916EE070E00E945B2B82
:101AE00026036001279FD00C11247E0188E9E81AA3
:101AF0008EEFF80A00E412E088E6A82EBB24B39427
:101B0000C701B5010E945B2B9801492D682D0E94E9
:101B1000170CEC0CFD1C0D5F1F4F92E00A361907E5
:101B200079F70E94AD0C809138029C2FC0FB87F999
:101B3000809338029695809139028078892BD0FB6A
:101B400087F98093390280923A0290923B02609129
:101B500038027091390280913A0290913B02DF91F4
:101B6000CF911F910F91FF90EF90DF90CF90BF909A
:101B7000AF909F908F900C94930CDF91CF911F9119
:101B80000F91FF90EF90DF90CF90BF90AF909F901C
:101B90008F90089520913802221F2227221F309112
:101BA0003902432F440F842F822B37FB992790F95A
:101BB000089668E671E00E946F2B40913B026091AD
:101BC0003A020C94220D20913802221F2227221F54
:101BD00030913902432F440F842F822B37FB9927F2
:101BE00090F9883091051CF4805A9E4F01C00897E7
:101BF00068E671E00E946F2B40913B0260913A02CF
:101C00000C94220D60913A02862F90E0883F910556
:101C100014F4685F01C06FEF80913802881F882735
:101C2000881F90913902292F220F97FB992790F94D
:101C300040913B02822B0C94220D60913A02862F38
:101C400090E0089714F0685001C060E0809138027D
:101C5000881F8827881F90913902292F220F97FB10
:101C6000992790F940913B02822B0C94220D4091D0
:101C70003B02842F90E0883F910514F4485F01C037
:101C80004FEF80913802881F8827881F9091390272
:101C9000292F220F97FB992790F960913A02822B06
:101CA0000C94220D40913B02842F90E0089714F091
:101CB000485001C040E080913802881F8827881F63
:101CC00090913902292F220F97FB992790F9609163
:101CD0003A02822B0C94220D9091380290FF44C05E
:101CE0009178811102C0926003C0833220F0946425
:101CF0009093380205C08F73880F892B8093380228
:101D0000609138027091390280913A0290913B02C1
:101D10000E94930C80913802982F9E77923019F48C
:101D20001092750110C0982F96959F732EE3290F7E
:101D30002F73273120F491E09093750104C0995DD1
:101D40009F739A3068F3881F8827881F9091390203
:101D5000292F220F97FB992790F940913B02609120
:101D60003A02822B0C94220D089580910A02816020
:101D700080930A0281E0809376010E94C51D811143
:101D800004C00E949F1D0E94990C0E948F0C6093BA
:101D900038027093390280933A0290933B026E7737
:101DA00061F40E94990C0E948F0C6093380270932A
:101DB000390280933A0290933B0281E0809375014F
:101DC0008091380280FF04C086958F730C946C0E4E
:101DD00008958091380286958F738F5F833208F063
:101DE00081E00C946C0E80913802982F909590FBB6
:101DF00080F98093380260913802709139028091A5
:101E00003A0290913B020E94930C8091380280FF2D
:101E100004C086958F730C946C0E109275012FEF91
:101E200080E792E0215080409040E1F700C0000040
:101E30000C94AD0CCF93C82F8091730190917401D5
:101E40000E947D1EEC2FF0E0EF58F84FE491F0E097
:101E50008E179F0710F10E94711E9093740180935A
:101E60007301E0917201F0E0EB58F84F44918091DA
:101E70003802881F8827881F90913902292F220F46
:101E800097FB992790F960913A02822B0E94D40C1B
:101E9000809172018F5F80937201CF910895CF93EB
:101EA000C82F80917001909171010E947D1EEC2FCE
:101EB000F0E0E259F84FE491F0E08E179F07E8F068
:101EC0000E94711E909371018093700140913B02BA
:101ED00060913A0280916E0190916F010E94D40C42
:101EE00080916E0190916F01019668E671E00E9409
:101EF0005B2B90936F0180936E01CF910895DF92D9
:101F0000EF92FF920F931F93CF93DF93D82E809180
:101F10006C0190916D010E947D1EED2DE695F0E023
:101F2000E259F84FE491F0E08E179F07F0F10E941C
:101F3000711E90936D0180936C0100E412E0C0E08B
:101F4000D0E098E6E92EFF24F39480916A01909105
:101F50006B018C0F9D1FB7010E945B2B9801409174
:101F60003B0260913A020E94170C69960D5F1F4F69
:101F7000CE3581E0D80749F70E94AD0C20916A0167
:101F800030916B01D0FE0BC0C901019668E671E08B
:101F90000E945B2B90936B0180936A0106C02150D5
:101FA000310930936B0120936A01DF91CF911F912A
:101FB0000F91FF90EF90DF9008958F929F92AF92D4
:101FC000BF92CF92DF92EF92FF920F931F93CF9326
:101FD000DF93C82F80FD03C09924939402C09924F5
:101FE0009A9480916801909169010E947D1EC69526
:101FF000EC2FF0E0E559F84FE491F0E08E179F07E1
:1020000008F469C00E94711E909369018093680171
:1020100030E4E32E32E0F32E02E412E0C0E0D0E040
:1020200047E0A42EB12CF80131971082F7011082FD
:10203000F801108227E0C22ED12C812C80916701FB
:10204000880D87FD825F992787FD9095C817D9076E
:10205000E9F420913B022C9DC0012D9D900D11248F
:10206000B5010E946F2B462F80913802881F882768
:10207000881F90913902592F550F97FB992790F996
:10208000970160913A02852B0E94170C890CF1E0B0
:10209000CF1AD108C114D10489F6219683E0E80E45
:1020A000F11C0D5F1F4FCE30D10509F0BCCF0E944F
:1020B000AD0C8091670191E0991206C0811102C0B8
:1020C0008DE007C0815005C090E00196BE010E94DE
:1020D0006F2B80936701DF91CF911F910F91FF903C
:1020E000EF90DF90CF90BF90AF909F908F9008952A
:1020F0009F92AF92BF92CF92DF92EF92FF920F9397
:102100001F93CF93DF93CDB7DEB7AA970FB6F8949E
:10211000DEBF0FBECDBF182F809165019091660183
:102120000E947D1EE12FF0E0E859F84FE491F0E0C5
:102130008E179F0708F491C00E94711E909366014C
:10214000809365018E010F5F1F4F5E0183E0A80E33
:10215000B11CE12CF12C6801F50131971082F801D6
:102160001082F5011082912C909100018091640100
:10217000999E800D112487FD04C08E301CF08DE0E7
:1021800001C080E0992787FD9095E816F906A1F433
:1021900080913802881F8827881F90913902592F13
:1021A000550F97FB992790F9980140913B02609158
:1021B0003A02852B0E94170C9394F7E09F12D4CF1C
:1021C0008FEFE81AF80A0D5F1F4FE3E0AE0EB11C67
:1021D000FEE0EF16F10409F0BFCF22E432E009E09F
:1021E00010E06EE0E62EF12CC801B7010E946F2BC3
:1021F000D9011197FC01EE0FFF1FE80FF91FEC0D3D
:10220000FD1D81818C93119780818C938281F901CE
:1022100080830F5F1F4F2D5F3F4F0731110521F75F
:102220000E94AD0C9091000180916401913049F4BD
:102230008A3F2CF489EF809364018FEF08C08150AE
:102240000AC085313CF084E18093640181E0809391
:10225000000103C08F5F80936401AA960FB6F894C3
:10226000DEBF0FBECDBFDF91CF911F910F91FF90C9
:10227000EF90DF90CF90BF90AF909F900895EF9236
:10228000FF920F931F93CF93DF9380916201909100
:1022900063010E947D1E883E9340C8F10E94711E1A
:1022A0009093630180936201C0916001D0916101BC
:1022B0002196C170DD27D0936101C093600100E4D5
:1022C00012E0F12C78E7E72E8F2D8695FE01E80FBE
:1022D000F11DCF0181709927980140913B026091D7
:1022E0003A02FC01EE9EC001EF9E900D11240E9467
:1022F000170CF3940D5F1F4FFEE0FF12E5CFDF9147
:10230000CF911F910F91FF90EF900C94AD0CDF9146
:10231000CF911F910F91FF90EF90089580917501DB
:10232000882391F120913802822F86958F739EE346
:10233000980F9F73943018F482500C941A0F9AE3FC
:10234000980F9F73933018F486500C944F0F97E3B7
:10235000980F9F73963018F489500C947F0F91E377
:10236000980F9F73963018F48F500C94DD0F9BE2FA
:10237000980F9F73933018F485510C9478102E7732
:10238000203311F40C943F11089590937C018093B5
:102390007B010895E0917B01F0917C01309721F061
:1023A0000190F081E02D099480E00895E0917B0197
:1023B000F0917C01309721F00280F381E02D0994A7
:1023C0000895E0917B01F0917C01309721F0048029
:1023D000F581E02D099408952091790130917A01D9
:1023E0008217930771F090937A0180937901E091BD
:1023F0007B01F0917C01309721F00680F781E02D80
:1024000009940895209177013091780182179307FC
:1024100071F09093780180937701E0917B01F091C6
:102420007C01309721F00084F185E02D0994089516
:1024300008950C9418120E94681E0E94B50A0E940A
:102440003A1F0E9487220C94B50E5F926F927F9282
:102450008F929F92AF92BF92CF92DF92EF92FF92B4
:102460000F931F93CF93DF93CDB7DEB72A970FB6A5
:10247000F894DEBF0FBECDBF0E94170B9EE7C92E9A
:1024800091E0D92E00E010E0AA24A394B12C502EA4
:10249000802F0E94D70B3C01F601E190F1906F0173
:1024A000E826F926E114F104B1F40F5F1F4F043060
:1024B000110569F78FEF89838A831B820E94711E41
:1024C0008160782F9D838C8349815A816B818D81B6
:1024D0000E94DE123AC080910A0281FD0E94E00B48
:1024E00020E030E04501022E02C0880C991C0A94BD
:1024F000E2F7C4018E219F21892B09F12E835F828F
:102500006820792081E0672809F480E088870E94AC
:10251000711E8160782F9A8789874E815F816885D7
:102520008A850E94DE12F801EE0FFF1FE258FE4F6F
:1025300080819181882599259183808306C02F5FB2
:102540003F4F2C30310571F6B0CF0E94DA21109147
:102550007D010E94CA111817D9F00E94CA118093F8
:102560007D012A960FB6F894DEBF0FBECDBFDF9176
:10257000CF911F910F91FF90EF90DF90CF90BF9080
:10258000AF909F908F907F906F905F900C94150804
:102590002A960FB6F894DEBF0FBECDBFDF91CF9164
:1025A0001F910F91FF90EF90DF90CF90BF90AF9071
:1025B0009F908F907F906F905F900895CF93DF935F
:1025C000CDB7DEB72B970FB6F894DEBF0FBECDBFE9
:1025D0004F83588769877A878B87DE01119686E05B
:1025E000FD0111928A95E9F785E0FE013796019089
:1025F0000D928A95E1F749815A816B817C818D81A9
:102600009E810E948A192B960FB6F894DEBF0FBEEA
:10261000CDBFDF91CF910895882309F4C4C08238DB
:1026200059F40E94CA1181FDBEC089E30E94A31C17
:102630000E94701D89E30CC0833871F40E94CA1196
:1026400080FDB1C083E50E94A31C0E94701D83E53C
:102650000E94E31C0C94701D843859F40E94CA1126
:1026600082FDA1C087E40E94A31C0E94701D87E424
:10267000EFCF9CEF980F913A18F40E94A31CEACF79
:1026800090E2980F983050F4877091E001C0990F54
:102690008A95EAF7892F0E94271DDCCF9BE5980FCA
:1026A000933070F4853A29F0863A31F482E890E06C
:1026B00005C081E890E002C083E890E00C94EC1142
:1026C00098E5980F953108F06EC0883A61F1893A23
:1026D00069F18A3A71F18B3A79F18C3A81F18B3B4D
:1026E00089F18C3B91F18D3A99F1803BA1F18E3AC1
:1026F000A9F18F3AB1F1813BB9F1823BC1F1833B42
:10270000C9F1843BD1F1853BD9F1863BE1F1873BAF
:10271000E9F1883BF1F1893BF9F18A3B09F03FC0CF
:102720008AE292E03EC082EE90E03BC089EE90E00B
:1027300038C08AEE90E035C085EB90E032C086EB81
:1027400090E02FC083EB90E02CC084EB90E029C098
:1027500087EB90E026C08CEC90E023C08DEC90E0FD
:1027600020C083E891E01DC08AE891E01AC082E9A8
:1027700091E017C084E991E014C081E292E011C0B9
:1027800083E292E00EC084E292E00BC085E292E028
:1027900008C086E292E005C087E292E002C080E0D5
:1027A00090E00C9402120895882309F44BC08238FB
:1027B00059F40E94CA1181FF45C089E30E94A31CFD
:1027C0000E94701D89E30CC0833871F40E94CA1105
:1027D00080FF38C083E50E94A31C0E94701D83E522
:1027E0000E94E31C0C94701D843859F40E94CA1195
:1027F00082FF28C087E40E94A31C0E94701D87E40A
:10280000EFCF9CEF980F913A58F390E2980F9830E1
:1028100050F4877091E001C0990F8A95EAF7892FEB
:102820000E942D1DDFCF9BE5980F933020F480E0B0
:1028300090E00C94EC11885A853120F480E090E00F
:102840000C9402120895882321F00E94271D0C94F5
:10285000701D0895882321F00E942D1D0C94701D79
:1028600008958F929F92AF92BF92CF92DF92EF9294
:10287000FF920F931F93CF93DF931F92CDB7DEB7D5
:102880004C01A62E472FFC01E580E2948FE0E82260
:10289000F280FF2021F079830E94441D4981498301
:1028A0000E949C1C4981882381F0FF2071F080E206
:1028B0008A0D883050F082E00E94851C0E949C1C8A
:1028C000BB24B394B826498101C0B12CE42FE29512
:1028D000EF70F0E0E859FF4F0C94832B842F807F3A
:1028E000142F1F70882311F01295107FFF2099F08C
:1028F000112309F49AC180E28A0D883010F0A110EA
:1029000004C0812F0E94271D03C0812F0E94371D04
:102910000E94701D8AC18A2D0E94D413112309F4CC
:10292000C1C180E28A0D883010F0A11004C0812F4F
:102930000E942D1D03C0812F0E943D1D0E94701D0D
:10294000B1C1242F207F842F8F70203211F0829507
:10295000807FAA2021F0F1E0AF16B1F021C0FF2066
:1029600041F0EE2039F191E0E91224C00E94571D98
:1029700099C1EE2021F0E1E0EE1609F493C18983BC
:102980000E945A1D89810BC1FF2029F0F5E0FE1538
:1029900008F488C10FC094E09E1508F483C1FFC0FD
:1029A000FF2059F0EE2031F0F401958190FF3DC1F8
:1029B0009F7095830E94231475C1EE2009F4EFC027
:1029C0003AC1242F26952695237030E02115310534
:1029D00021F02130310561F065C1FF2021F08A2D01
:1029E000942F937002C080E090E00E94EC115AC1D5
:1029F000FF2021F08A2D942F937002C080E090E098
:102A00000E9402124FC18A2DFF2019F00E94E2207D
:102A100002C00E944A210E94CF2144C1842F8370AA
:102A200009F04EC0F1103EC12A2D2295269527703F
:102A3000220F220F8A2D8F70C82ED12CE12CF12C61
:102A4000022E04C0CC0CDD1CEE1CFF1C0A94D2F735
:102A5000A4FE10C06FE070E080E090E004C0660F5C
:102A6000771F881F991F2A95D2F7609570958095DA
:102A7000909503C060E070E0CB01242F2695269549
:102A8000237030E02230310569F02330310589F0C0
:102A90006C297D298E299F292130310571F00E94F2
:102AA000D91A00C16C297D298E299F290E94EB1A11
:102AB000F9C00E94D91AC701B6010E94C71AF2C014
:102AC000FF2019F0842F817001C08695882309F4B6
:102AD000E9C02A2D229526952770220F220F8A2DD4
:102AE0008F70C82ED12CE12CF12C022E04C0CC0CFE
:102AF000DD1CEE1CFF1C0A94D2F7A4FE10C06FE090
:102B000070E080E090E004C0660F771F881F991F77
:102B10002A95D2F7609570958095909503C060E0F6
:102B200070E0CB01242F26952695237030E02230CB
:102B3000310569F02330310589F06C297D298E2912
:102B40009F292130310571F00E94851BABC06C2993
:102B50007D298E299F290E94971BA4C00E94851B56
:102B6000C701B6010E94731B9DC00A2D10E0F80139
:102B7000E05EF109E531F10508F053C0E858FF4F78
:102B80000C94832B1A2D1F70842F8F71FF2021F03E
:102B90000E941E1B812F0ECF0E94391B812F0E9485
:102BA0002A1480C0FF2049F0F4E0FE1508F47AC032
:102BB000842F8F710E94581B75C085E08E1508F414
:102BC00071C0F6CFFF2039F0842F8F710E941E1B39
:102BD00069C0FF20C9F3842F8F710E94391B62C026
:102BE000FF2029F0842F8F710E940F1B5BC00E9471
:102BF0000A1B58C0FF2051F0142F1F71812F0E9413
:102C00001E1B63E0812F0E947C1C4CC081E00E944F
:102C1000851C91E09E1508F045C082E00E94851C4D
:102C200041C0FF2031F0EE2079F28A2D0E940C1372
:102C300039C0EE2081F28A2D0E94D41333C04F7028
:102C40006A2DC4010E94D6050E94371A2BC0F110CC
:102C500029C0942F9F70492F50E042305105B9F0A0
:102C60004CF44115510581F041305105D9F40E94D1
:102C7000B42218C04330510569F04430510591F435
:102C80008A2D0E9408230EC00E9498220BC00E9429
:102C9000D02208C00E94E32205C04F706A2DC401F3
:102CA0000E94F205BB20F1F00E94781C80FD1AC042
:102CB000F40112820E94721C0E941E1BC4010E9419
:102CC00080160E94721C0F90DF91CF911F910F917F
:102CD000FF90EF90DF90CF90BF90AF909F908F903C
:102CE0000C94391B0F90DF91CF911F910F91FF90A2
:102CF000EF90DF90CF90BF90AF909F908F9008950E
:102D00000F931F93CF93DF93EC01288139818B813F
:102D10009C81892B31F03F3F11F080E003C02F3FB1
:102D2000E1F781E0811113C0CE010E9426068823BD
:102D300071F0688179818A810E944F1C8C010E9408
:102D4000A91B0E94C41AB801CE010E943114DF9160
:102D5000CF911F910F9108950E94441D0E94541D10
:102D60000E94161D0E94701D0E947B220E94CF218E
:102D700080E090E00E94EC1180E090E00C94021260
:102D80000E94341D0C94AC160E94441CE92FE2955D
:102D9000EF70F0E03297EE30F105B8F4E357FF4FF3
:102DA0000C94832B803F59F018F4803E70F407C0D8
:102DB000843F59F404C0803E10F0813F31F481E03B
:102DC000089593FB882780F9089580E00895CF93B4
:102DD000DF9300D000D01F92CDB7DEB70F900F90D9
:102DE0000F900F900F90DF91CF910895CF93DF93C5
:102DF00000D000D000D0CDB7DEB726960FB6F8943D
:102E0000DEBF0FBECDBFDF91CF9108951F93CF934B
:102E1000DF93C091870116E080918801C81799F06F
:102E2000D0E01C9FF0011D9FF00D1124E757FE4FCD
:102E30004081518162817381848195810E94F6165F
:102E40002196C770E9CFDF91CF911F9108954091EE
:102E5000B9015091BA016091BB017091BC018091A0
:102E6000BD019091BE010C94F616CF938091BE01E6
:102E700082958F7009F05FC08091BB01882309F4AF
:102E80005AC020918701A09188016091B901709189
:102E9000BA018091BC019091BD0131E06F3F09F012
:102EA00030E0B32FC6E02A1709F445C0009721F09F
:102EB0007F3F21F44B2F03C041E001C040E030E0F0
:102EC00040FD35C0C29FF001C39FF00D1124E757AC
:102ED000FE4F418174132BC04081641328C042818E
:102EE000411125C0438154814817590710F44150BE
:102EF0005109481B590B483C5105C8F48091BE014B
:102F00008F7080618093BE0186E0829FF001839F75
:102F1000F00D1124E257FE4F80818F708061808315
:102F200089EB91E00E948016CF910C9406172F5FD9
:102F30003F4F2770B8CFCF910895CF92DF92EF9295
:102F4000FF920F931F93CF93DF93CDB7DEB76297B6
:102F50000FB6F894DEBF0FBECDBF8C0185E0F8013F
:102F6000DE011D9601900D928A95E1F7D8014C91F2
:102F700011965C91119712966C9112971396ED90A1
:102F8000FC9014977091B901E091BA012091BC01B5
:102F90003091BD012115310531F0EF3F31F481E071
:102FA0007F3F19F403C081E001C080E0B82FB17009
:102FB000CB2E80FD6CC1D090BB01DD2009F4F5C0A3
:102FC000F091BE01E216F30638F0C701821B930BA5
:102FD000883C910548F09BC0209530952E0D3F1DF3
:102FE000283C310508F093C08F2F807F09F052C034
:102FF000E51314C0741312C0D62E61110FC0FF70F8
:10300000F061F093BE010E94271789EB91E00E94C6
:1030100080168091BE01F80185836CC1EF2831F0E4
:103020005F3F31F481E04F3F19F403C081E001C0FC
:1030300080E080FD03C081E0862701C080E0F82F9A
:10304000F170FF2E80FF1CC08091870120918801C4
:1030500036E0821709F428C190E0389FF001399FCB
:10306000F00D1124E757FE4F7181571306C0708190
:10307000471303C07281671303C001968770E9CFBD
:10308000D62E662309F436C18091BE0181608093FB
:10309000BE0153C0E51308C0741306C0611104C01B
:1030A000D8011596FC93AEC04D875E878D859E85B1
:1030B0006A8B0E94C4166A89882329F1D62E66235A
:1030C00011F12091BE01822F82958F7090E00297BE
:1030D0000CF460C08091B9019091BA0198878F83F8
:1030E0001986FB86EA862C87CE01079651C0E51724
:1030F00031F14D875E878D859E856A8B0E94C4164F
:103100006A8981112EC0C8010E948016A4C08F2F29
:10311000807F69F77E2DF98AE88A89890E94E716FF
:1031200089EB91E00E948016E9EBF1E086E0DF0197
:103130001D928A95E9F70E942717D12CDBC07413E2
:10314000D8CF6111D6CFD8011596FC93C8010E9443
:103150008016E9EBF1E086E0DF011D928A95E9F740
:10316000C9C0D62E662379F22091BE01822F8295A6
:103170008F7090E0029774F08091B9019091BA013C
:103180009A8389831B82FD82EC822E83CE01019675
:103190000E94801686E0F801A9EBB1E001900D9243
:1031A0008A95E1F70E9435176FC0E216F30628F002
:1031B000C701821B930B9C0104C0209530952E0DF6
:1031C0003F1D283C310508F052C0D62E662309F475
:1031D0009ACFE5132CC074132AC08091BE0180FDE4
:1031E0001DC0982F92959F70C9F0D80115968C93A9
:1031F00015979F3039F09F5F9295907F8F70892B44
:1032000015968C93C8010E94801686E0F801A9EB00
:10321000B1E001900D928A95E1F736C086E0F801A1
:10322000A9EBB1E001900D928A95E1F763C04D875B
:103230005E878D859E850E94C416882379F086E07E
:10324000F801A9EBB1E001900D928A95E1F70E9497
:1032500035170E942717DD24D3944CC08091BE01FE
:1032600081608093BE01C8010E94801643C07E2DFC
:10327000F98AE88A89890E94E716E9EBF1E086E09D
:10328000DF011D928A95E9F70E94271733C0662354
:1032900009F439CF4D875E878D859E850E94C416BF
:1032A000882309F430CFCBCF4D875E878D859E85EF
:1032B0000E94441C292F22952F7030E022303105C6
:1032C0002CF49F7041F0811106C00CC024303105F0
:1032D0002CF49F7049F4805E883020F0C8010E9471
:1032E0008016CF2CDC2C06C0D80115969C91907FBF
:1032F00091F7F8CF8D2D62960FB6F894DEBF0FBE12
:10330000CDBFDF91CF911F910F91FF90EF90DF9094
:10331000CF9008951F93CF93DF93CDB7DEB72C974F
:103320000FB6F894DEBF0FBECDBF4F8358876987B5
:103330007A878B879C87CE0107960E949D178823EA
:10334000C1F02F8138858A859B85892B31F03F3FDD
:1033500011F080E003C02F3FE1F781E0811147C009
:103360004F81588569857A858B859C850E94F616E4
:103370003EC086E0FE013796DE01119601900D9267
:103380008A95E1F7FF81E8854A855B8541155105FE
:1033900031F0EF3F31F481E0FF3F19F403C081E0E9
:1033A00001C080E080FD23C02091880130E0C90188
:1033B0000196877099276091870170E086179707BB
:1033C000F1F1F983EA835D834C8396E0929FD0010B
:1033D000939FB00D1124A757BE4FFE013196019067
:1033E0000D929A95E1F7809388010E94061716E0E6
:1033F0008091870190918801891779F1189FC00108
:10340000112487579E4F0E949D17882331F1E09128
:1034100087011E9FF0011124E757FE4F4081518123
:1034200062817381848195810E94F6168091870163
:1034300090E001968770992780938701D9CF0E94E9
:10344000C0161092880110928701E9EBF1E086E046
:10345000DF011D928A95E9F7CACF2C960FB6F89432
:10346000DEBF0FBECDBFDF91CF911F910895EF92C8
:10347000FF920F931F93CF93DF93FC01009709F402
:103480006FC0F12CEE24E394EF01219684918437F0
:1034900040F4843008F055C0813081F0823021F151
:1034A0005FC0853709F447C0C0F19CE7980F90379B
:1034B00008F056C08F770E94D41345C08F010E5F6D
:1034C0001F4FFE01849190E2980F983050F487705E
:1034D000FE2D01C0FF0F8A95EAF78F2F0E94471D2E
:1034E00015C00E940C1314C08F010E5F1F4FFE0108
:1034F000849190E2980F983068F48770FE2D01C097
:10350000FF0F8A95EAF78F2F0E944D1D0E94701DB4
:10351000E80119C00E94D413FBCFCF010296FE012F
:10352000C491CC2361F0EFE9FFE03197F1F700C0DF
:103530000000C150F6CFCF010296FE01F490EC01DD
:1035400002C00E940C138F2D882341F0EFE9FFE0A9
:103550003197F1F700C000008150F6CFFE0194CF03
:10356000DF91CF911F910F91FF90EF9008950895F3
:103570000E94B71A6093E1017093E2018093E30126
:103580009093E4010C94AC1608950C94B81A0F9320
:103590001F930091E1011091E2012091E30130912C
:1035A000E401602B712B822B932B1F910F910C94B4
:1035B000B81A0F931F930091E1011091E20120913D
:1035C000E3013091E40160237123822393231F914F
:1035D0000F910C94B81A0F931F930091E101109171
:1035E000E2012091E3013091E401602771278227F5
:1035F00093271F910F910C94B81A08950E94FD1AF9
:103600006093DD017093DE018093DF019093E00110
:103610000C94AC1660E070E0CB010C94FE1A41E013
:1036200050E060E070E004C0440F551F661F771F34
:103630008A95D2F7CB01BA010C94FE1A41E050E012
:1036400060E070E004C0440F551F661F771F8A9525
:10365000D2F78091DD019091DE01A091DF01B09160
:10366000E001482B592B6A2B7B2BCB01BA010C9420
:10367000FE1A41E050E060E070E004C0440F551FC6
:10368000661F771F8A95D2F7409550956095709583
:103690008091DD019091DE01A091DF01B091E00108
:1036A000482359236A237B23CB01BA010C94FE1AC9
:1036B00041E050E060E070E004C0440F551F661F19
:1036C000771F8A95D2F78091DD019091DE01A0915C
:1036D000DF01B091E001482759276A277B27CB01FA
:1036E000BA010C94FE1A0F931F930091DD01109103
:1036F000DE012091DF013091E001602B712B822BE4
:10370000932B1F910F910C94FE1A0F931F9300910E
:10371000DD011091DE012091DF013091E001602395
:103720007123822393231F910F910C94FE1A0F9300
:103730001F930091DD011091DE012091DF01309196
:10374000E00160277127822793271F910F910C9426
:10375000FE1A08952CE0929F800D1124482F469563
:10376000469546958770B1E001C0BB0F8A95EAF790
:1037700085E0489FA001112441545E4F80E090E015
:1037800070E0FA01E80FF91FA0819B01082E02C02A
:10379000369527950A94E2F72170332721952A2739
:1037A0002B232A27208301968530910551F7089510
:1037B0002CE0929F800D1124682F66956695669582
:1037C000982F977085E0689FB001112461547E4F57
:1037D00040E050E080E0FB01E40FF51F208130E085
:1037E000092E02C0369527950A94E2F721703327F7
:1037F000042E01C0220F0A94EAF7822B4F5F5F4F1D
:103800004530510541F70895CF92DF92EF92FF9234
:103810000F931F93CF93DF93EC01C090E101D09001
:10382000E201E090E301F090E4018091DD019091EC
:10383000DE01A091DF01B091E001C82AD92AEA2A6D
:10384000FB2A0FE110E0B701A601002E04C0769517
:103850006795579547950A94D2F740FD05C00150EA
:10386000110988F780E007C0BE01802F0E9431084F
:103870000197A9F3802FDF91CF911F910F91FF90B6
:10388000EF90DF90CF900895CF93DF93EC010E94EB
:10389000041CBE010E943108DF91CF9108951F934F
:1038A000CF93DF93EB0190918601992321F0CB0117
:1038B0000E94441C13C0882349F0CB010E94041CC1
:1038C000182F682FCE010E94AA1B04C0CB010E94B2
:1038D000D81B182FBE01812F0E943108DF91CF9194
:1038E0001F9108958091E5018595859585950895A9
:1038F0008091E5018770089598E0899F90011124D7
:10390000622B6093E5010C941E1B4091E5018095AC
:1039100084238093E501982F977069F450E0282F55
:10392000332727FD30954217530729F08595859554
:1039300085950C94391B08959091E501977081E06D
:1039400009F480E00895909113019923D9F09091A2
:103950006E0297FF17C0982F9695969596959F3172
:1039600088F5E0910101F0910201E90FF11D8770E6
:1039700021E030E001C0220F8A95EAF78181822B95
:1039800081830895409101015091020120E030E0CF
:103990009FEFFA01E20FF31F6281681799F09F3FD2
:1039A00019F4611101C0922F2F5F3F4F2E31310565
:1039B00081F79F3F39F0FA01E90FF11D97FDFA9564
:1039C000828308950895909113019923E1F09091D5
:1039D0006E0297FF18C0982F9695969596959F31F1
:1039E00020F5E0910101F0910201E90FF11D8770CE
:1039F00021E030E001C0220F8A95EAF7209581810D
:103A0000282321830895409101015091020120E073
:103A100030E0FA01E20FF31F9281981301C0128285
:103A20002F5F3F4F2E313105A1F7089581E090E0DF
:103A3000E0910101F0910201E80FF91F1082019657
:103A400080329105A9F70895809109020895909117
:103A50000902982B9093090208958095909109028C
:103A60009823909309020895109209020895909165
:103A70000802982B9093080208958095909108026F
:103A80009823909308020895109208020895909147
:103A90000702982B90930702089580959091070252
:103AA0009823909307020895109207020895809337
:103AB000E60108951092E6010895409101015091A8
:103AC000020120E030E080E0FA01E20FF31F918173
:103AD00091118F5F2F5F3F4F2F313105A9F7089567
:103AE000E0910101F0910201809109028083E0914F
:103AF0000101F0910201808190910802892B80835D
:103B0000E0910101F0910201808190910702892BDF
:103B100080839091E601992361F0E0910101F09199
:103B200002018081892B80830E945D1D811110928A
:103B3000E60180910101909102010C94D6116DEE85
:103B40007EEF80E090E00E94BB2B60E082E090E09E
:103B50000E949D2B60E083E090E00E949D2B60E03E
:103B600084E090E00E949D2B60E085E090E00E9460
:103B70009D2B60E086E090E00E949D2B40E050E0AD
:103B8000BA0188E090E00C94AF2B80E090E00E94B6
:103B9000972B21E08D3E9E4F09F020E0822F089563
:103BA00082E090E00C94892B682F82E090E00C94E6
:103BB0009D2B83E090E00C94892B682F83E090E0AC
:103BC0000C949D2B84E090E00C94892B682F84E06A
:103BD00090E00C949D2B86E090E00C94892B682F4C
:103BE00086E090E00C949D2B80917502843039F131
:103BF00010920B0220E488E190E00FB6F894A895AB
:103C0000809360000FBE2093600080E00E94E60772
:103C100080E00E94150883B7817F846083BF83B7EB
:103C2000816083BF7894889583B78E7F83BF88E156
:103C30000FB6F89480936000109260000FBE089554
:103C400008950895CF930E94201E0E94170B0E9492
:103C5000211EC0E08C2F0E94D70B892B29F4CF5F47
:103C6000C430C1F780E001C081E0CF9108950E9487
:103C7000C0160E9487220E94CA110C9415081F9238
:103C80000F920FB60F9211248F939F93AF93BF9310
:103C900080910B02811113C080916A0290916B0296
:103CA000A0916C02B0916D024196A11DB11D80934F
:103CB0006A0290936B02A0936C02B0936D02BF9165
:103CC000AF919F918F910F900FBE0F901F901895FD
:103CD00082E084BD93E095BD9AEF97BD80936E001E
:103CE00008952FB7F89480916A0290916B02A09189
:103CF0006C02B0916D022FBF0895CF92DF92EF92C8
:103D0000FF920F931F932FB7F89440916A0250913E
:103D10006B0260916C0270916D022FBF6A017B0192
:103D2000EE24FF248C0120E030E0C016D106E2062C
:103D3000F30610F441505109481B590BCA011F9159
:103D40000F91FF90EF90DF90CF90089578941F929D
:103D50000F920FB60F9211248F939F93AF93BF933F
:103D600080916A0290916B02A0916C02B0916D02F9
:103D70000196A11DB11D80936A0290936B02A093DE
:103D80006C02B0936D02BF91AF919F918F910F9094
:103D90000FBE0F901F9018950E944427F8942FEFA4
:103DA00087EA91E6215080409040E1F700C0000092
:103DB00087E090EBDC0180937E0290937F02A093DA
:103DC0008002B09381022CE088E190E00FB6F89475
:103DD000A895809360000FBE20936000FFCFBF9234
:103DE000CF92DF92EF92FF920F931F93CF93DF93C7
:103DF000B12C01E010E0E82EF12C8B2D0E94D70BA6
:103E00006C01C0E0D0E098010C2E02C0220F331FDD
:103E10000A94E2F72C213D21232B29F42196CC3062
:103E2000D10589F70AC06C2F7B2D80E00E9417080E
:103E3000E816F90699F781E005C0B39484E0B8125A
:103E4000DCCF80E0DF91CF911F910F91FF90EF9039
:103E5000DF90CF90BF900895CF93C82F8CE20E943F
:103E6000EF1E882321F08C2FCF910C94EF1E80E061
:103E7000CF910895CF930E94C51D811102C00E9469
:103E80009F1DC5E6C15049F00E94170B8FE39CE9C6
:103E90000197F1F700C00000F5CF89E20E942C1FC6
:103EA00081110DC18AE20E942C1F81110E949F1D69
:103EB00085E00E942C1F81110E94CC1E0E94D01D03
:103EC00080930A0287E00E942C1F882399F18BE1DE
:103ED0000E942C1F882351F090910A0291FB8827A1
:103EE00080F921E0822780FB91F922C08EE00E94B8
:103EF0002C1F882351F090910A0292FB882780F9A9
:103F000021E0822780FB92F913C080E10E942C1FE0
:103F100090910A02882341F093FB882780F921E0E1
:103F2000822780FB93F904C0892F809580FB90F94C
:103F300090930A0280910A020E94D41D0E94E21D01
:103F400090E090936F0280936E0280EE0E942C1F8F
:103F5000882341F080916E02982F909590FB80F914
:103F600080936E0289E30E942C1F882359F0909160
:103F70006E0291FB882780F921E0822780FB91F96E
:103F800090936E0282EE0E942C1F882359F090912C
:103F90006E0292FB882780F921E0822780FB92F94C
:103FA00090936E0286EE0E942C1F882359F0909108
:103FB0006E0293FB882780F921E0822780FB93F92A
:103FC00090936E0283EE0E942C1F882359F09091EB
:103FD0006E0294FB882780F921E0822780FB94F908
:103FE00090936E0285E30E942C1F882359F09091D4
:103FF0006E0295FB882780F921E0822780FB95F9E6
:1040000090936E0281E30E942C1F882359F09091B7
:104010006E0296FB882780F921E0822780FB96F9C3
:1040200090936E0281E10E942C1F882359F0909199
:104030006E0297FB882780F921E0822780FB97F9A1
:1040400090936E0280916E020E94E61D87E20E94AC
:104050002C1FC82F8EE10E942C1F8111C2608FE19E
:104060000E942C1F8111C46080E20E942C1F8111CC
:10407000C86081E20E942C1F8111C06182E20E940F
:104080002C1F8111C06283E20E942C1F8111C06429
:1040900084E20E942C1F882311F0C06802C0CC2348
:1040A00029F08C2F0E94DD1D6C2F03C00E94D91DAA
:1040B000682F70E080E090E0CF910C94C51ACF910A
:1040C000089580910E0280FF0BC06091060185E08B
:1040D000689FB001112475956795759567952AC0FD
:1040E00081FF09C06091060185E0689FB00111243D
:1040F000759567951FC082FF07C06091060185E036
:10410000689FB001112416C040910F024423C9F0EA
:1041100060910501461788F72091060185E0289FE8
:1041200090011124429FC001439F900D112470E023
:104130000E946F2B6038710540F46115710539F0EC
:1041400002C065E070E0862F08958FE7089581E052
:10415000089580910E0280FF08C06091040170E014
:10416000759567957595679521C081FF06C060912B
:10417000040170E07595679519C082FF04C06091D5
:10418000040170E010C080910F028823C1F060919B
:1041900003018617A0F790910401989FC001112494
:1041A00070E00E946F2B6038710528F4611571056D
:1041B00021F0862F08958FE7089581E0089561E04A
:1041C00070E0F4CF803F21F40E946120819504C00B
:1041D000813F29F40E946120809312020895823F5A
:1041E00021F40E946120819504C0833F29F40E943C
:1041F0006120809311020895893F19F40E94A9203B
:1042000005C08A3F31F40E94A92081958093130252
:1042100008958B3F21F40E94A920819504C08C3F12
:1042200029F40E94A920809314020895843F21F468
:1042300080911002816017C0853F21F480911002A7
:10424000826011C0863F21F48091100284600BC00F
:10425000873F21F480911002886005C0883F31F4C7
:104260008091100280618093100208958D3F21F4A7
:1042700080910E0281600BC08E3F21F480910E026E
:10428000826005C08F3F29F480910E028460809384
:104290000E020895803F39F48091120287FF6CC0AE
:1042A0001092120269C0813F29F4809112021816FF
:1042B000BCF362C090911102823F29F497FF5CC069
:1042C0001092110259C0833F19F41916CCF354C04F
:1042D000893F41F48091130218160CF04DC01092E2
:1042E00013024AC08A3F29F48091130287FF44C019
:1042F000F6CF8B3F39F48091140287FF3DC01092B6
:1043000014023AC08C3F29F4809114021816BCF3B1
:1043100033C0843F21F4809110028E7F17C0853F07
:1043200021F4809110028D7F11C0863F21F480918D
:1043300010028B7F0BC0873F21F480911002877F92
:1043400005C0883F31F4809110028F7E8093100267
:1043500013C08D3F21F480910E028E7F0BC08E3FE3
:1043600021F480910E028D7F05C08F3F29F480914A
:104370000E028B7F80930E028091110281110EC07C
:104380008091120281110AC080911302811106C02E
:1043900080911402811102C010920F02089580E1F1
:1043A00092E00E94E1110E94711E90930D02809391
:1043B0000C0208951F93CF93DF9380910C0290918C
:1043C0000D020E947D1E40910F02442321F0209196
:1043D000070130E006C0209108015AE0259F9001B6
:1043E00011248217930708F482C080911102109162
:1043F0001202D0911302C0911402811107C0111151
:1044000005C0D11103C0CC2309F471C04F3F19F08E
:104410004F5F40930F02181624F40E94612080938E
:1044200011028091110287FF05C00E9461208195D1
:1044300080931102111624F40E94612080931202CD
:104440008091120287FF05C00E94612081958093B0
:10445000120260911102662339F1109112021123A8
:1044600019F1772767FD7095872F972F0E946C2A87
:1044700023E333E343E35FE30E94D02A0E94392A17
:1044800060931102612F772767FD7095872F972F13
:104490000E946C2A23E333E343E35FE30E94D02AC4
:1044A0000E94392A609312021D1624F40E94A9204A
:1044B000809313028091130287FF05C00E94A920F8
:1044C0008195809313021C1624F40E94A9208093E6
:1044D00014028091140287FF05C00E94A9208195D3
:1044E00080931402DF91CF911F910C94CF21DF9123
:1044F000CF911F910895E0E1F2E085E0DF011D9288
:104500008A95E9F710920F0210920E0208950E9408
:10451000C51D811102C00E949F1D0E94EB1D80934A
:10452000700280FF02C0869501C080E00C94E6070F
:1045300020917002322F3695832F90E0039744F438
:1045400091E0930F990F822F8170892B80937002D5
:10455000809170028160809370020E94EF1D8091B3
:10456000700286950C94E60780917002982F9695BC
:1045700091F09158990F8170892B809370028E7FF2
:1045800091E009F490E08091700290FB80F98093B3
:1045900070020E94EF1D8091700286950C94E607D0
:1045A00080917002982F909590FB80F98093700213
:1045B0000E94EF1D8091700280FF02C0869501C0AD
:1045C00080E00C94E60730917002232F26952F5F30
:1045D0002F77822F90E0317004972CF4220F232B39
:1045E0002093700202C030937002809170028E7F1F
:1045F00091E009F490E08091700290FB80F9809343
:1046000070020E94EF1D8091700286950C94E6075F
:1046100020917002922F96959827990F822F817082
:10462000892B809370028E7F91E009F490E0809155
:10463000700290FB80F9809370020E94EF1D8091C0
:10464000700286950C94E6078091350208950F93C9
:104650001F93CF93DF9300D01F92CDB7DEB78C01AD
:104660000E949525823011F0843019F583E089830A
:104670001B830A838093E9008FEF9091E8008150BB
:1046800095FD06C095ED9A95F1F700008111F5CFE3
:104690008091E80085FF0DC040E050E063E070E0ED
:1046A000CE0101960E94B2258091E8008E7780931A
:1046B000E8000F900F900F90DF91CF911F910F9115
:1046C0000895CF93DF9300D01F92CDB7DEB720912E
:1046D0007502243031F522E02983805891099B83AB
:1046E0008A8383E08093E9008FEF9091E800815006
:1046F00095FD06C095ED9A95F1F700008111F5CF73
:104700008091E80085FF0DC040E050E063E070E07C
:10471000CE0101960E94B2258091E8008E778093A9
:10472000E8000F900F900F90DF91CF910895CF93F5
:10473000DF93EC010E949525823011F08430F9F46A
:1047400082E08093E9008FEF9091E800815095FD21
:1047500006C095ED9A95F1F700008111F5CF809193
:10476000E80085FF0CC040E050E065E070E0CE015D
:104770000E94B2258091E8008E778093E800DF9157
:10478000CF910895CF93DF93EC010E94952582305D
:1047900019F0843009F047C0809113018823E1F0BB
:1047A00080916E0287FF18C084E08093E9008FEF4C
:1047B0009091E800815095FD06C095E19A95F1F73A
:1047C00000008111F5CF8091E80085FF2CC040E00A
:1047D00050E060E270E017C081E08093E9008FEF65
:1047E0009091E800815095FD06C095ED9A95F1F7FE
:1047F00000008111F5CF8091E80085FF14C040E0F2
:1048000050E068E070E0CE010E94B2258091E8009F
:104810008E778093E80080E2FE01A5E1B2E001908E
:104820000D928A95E1F7DF91CF91089580917402FE
:10483000811109C00E9444270E94A1278091E200B3
:1048400084608093E20008951092740208950895A0
:1048500008950C94371E42E061EC81E00E94BE2670
:1048600042E061EC82E00E94BE2642E061EC83E01F
:104870000E94BE2642E261EC84E00C94BE26809148
:104880007702833009F455C030F4813071F0823002
:1048900009F48EC008958A3009F47AC08B3009F487
:1048A00060C0893009F09CC020C080917602813AB6
:1048B00009F096C08091E800877F8093E80080919E
:1048C0007A0290917B02892B21F060E080E090E0F9
:1048D00003C060E285E192E070E00E94FB258091D8
:1048E000E8008B778093E80008958091760281320A
:1048F00009F076C080917A0290917B02009719F0BE
:10490000039709F06DC08091E800877F8093E800ED
:104910008091E80082FD05C0809175028111F8CF79
:104920005FC08091F100809335028091E8008B7721
:1049300053C080917602813A09F052C080917A0288
:1049400090917B02892B09F04BC08091E800877F12
:104950008093E8008091E80080FFFCCF80911301F4
:1049600036C0809176028132D9F580917A02909199
:104970007B02892BA9F58091E800877F8093E8006E
:104980000E94F32680917802809313010C94C01644
:1049900080917602813221F58091E800877F8093B3
:1049A000E8000E94F32680917902809336020895F0
:1049B00080917602813AA1F48091E800877F80930C
:1049C000E8008091E80080FFFCCF80913602809360
:1049D000F1008091E8008E778093E8000C94F32634
:1049E000089584B7877F84BF88E10FB6F8948093D9
:1049F0006000109260000FBE80E88093610010920A
:104A000061000E9419120E9444270E94A1278091F0
:104A1000E20084608093E20078940E941C2A0E9445
:104A20001B1289E091E00E94C511809175028530CA
:104A300069F40E94F41D809173028823B1F30E94EF
:104A4000221E882391F30E949C25EFCF0E942512FD
:104A50000E948E11EACF292F332723303105A9F088
:104A60006CF42130310509F442C02230310509F0DF
:104A700043C08DE690E025EA39E042C0213231059D
:104A8000C9F02232310519F137C0992781309105DB
:104A900041F08230910541F0892B71F5E1EAF9E0AE
:104AA00005C0E9E8F9E002C0E5E7F9E0849190E0AB
:104AB0009F0126C0643000F5E62FF0E0EE0FFF1FE7
:104AC000E05DFE4F2081318189E090E019C06430C3
:104AD00098F4E62FF0E0DF01AA0FBB1FA85DBE4FE0
:104AE0002D913C91EC5DFE4F808190E009C082E108
:104AF00090E022E13AE004C080E090E020E030E085
:104B0000FA013183208308950895CF93C82F0E941E
:104B10008425C0933702CF91089580917502843027
:104B200011F482E0089581E00895809137028111A7
:104B300002C00C948D25089580E189BD82E189BD74
:104B400009B400FEFDCF8091D8008F7D8093D800FE
:104B50008091E00082608093E0008091E00081FD20
:104B6000FCCF0895CF92DF92EF92FF920F931F93A5
:104B7000CF93DF937C018B01EA010E9414278111FE
:104B800031C0209731F088819981081B190BE80EFC
:104B9000F91EC12CD12C0115110519F18091E800E5
:104BA00085FD14C08091E8008E778093E8002097FF
:104BB00041F0888199818C0D9D1D9983888385E0C2
:104BC00011C00E941427882331F30CC0F701819192
:104BD0007F018093F10001501109FFEFCF1ADF0A26
:104BE000DACF80E0DF91CF911F910F91FF90EF908E
:104BF000DF90CF90089520917C0230917D0226179E
:104C0000370748F06115710539F42091E8002E77D7
:104C10002093E80001C0B901FC0120E06115710595
:104C2000B9F180917502882309F440C0853009F4F8
:104C30003FC08091E80083FD3DC08091E80082FF85
:104C400006C08091E80082FF26C080E00895809130
:104C5000E80080FFE3CF2091F3008091F20090E024
:104C6000922B6115710551F08830910538F421912E
:104C70002093F100615071090196F3CF21E008976C
:104C800009F020E08091E8008E778093E800C6CF9D
:104C90002111C7CFD6CF80917502882339F0853096
:104CA00039F08091E80083FFCCCF04C082E0089502
:104CB00083E0089581E0089520917C0230917D0287
:104CC0002617370748F06115710539F42091E8007F
:104CD0002E772093E80001C0B901FC0120E06115A6
:104CE0007105C1F180917502882309F441C08530B6
:104CF00009F440C08091E80083FD3EC08091E80047
:104D000082FF06C08091E80082FF27C080E00895FE
:104D10008091E80080FFE3CF2091F3008091F200C2
:104D200090E0922B6115710559F08830910540F49F
:104D300024912093F1003196615071090196F2CFD0
:104D400021E0089709F020E08091E8008E778093B9
:104D5000E800C5CF2111C6CFD5CF80917502882339
:104D600039F0853039F08091E80083FFCBCF04C063
:104D700082E0089583E0089581E00895982F9730A8
:104D800058F59093E900981739F07091EC00209154
:104D9000ED005091F00003C0242F762F50E021FF4A
:104DA00019C03091EB003E7F3093EB003091ED0065
:104DB0003D7F3093ED003091EB0031603093EB009C
:104DC0007093EC002093ED005093F0002091EE00E2
:104DD00027FF07C09F5FD3CF8F708093E90081E0EA
:104DE000089580E008958091760287FD05C0809146
:104DF000E80080FF0EC012C08091E80082FD05C06F
:104E0000809175028111F8CF08958091E8008B7729
:104E100008C0809175028111EACF08958091E80061
:104E20008E778093E80008958091E4009091E500EA
:104E300045E62091EC0020FF21C02091E80020FDF4
:104E400021C020917502222389F0253089F020911C
:104E5000EB0025FD0FC02091E4003091E5002817FC
:104E6000390739F3415041F0C901E3CF82E0089599
:104E700083E0089581E0089584E008952091E8009A
:104E800022FFDFCF80E008950E94B2270E94BA2758
:104E9000E0EEF0E0808181608083E8EDF0E08081E9
:104EA0008F77808319BCA7EDB0E08C918E7F8C93B7
:104EB00080818F7E80831092740208950F931F93D8
:104EC000CF93DF930E94B2270E94BA27C8EDD0E0AB
:104ED00088818F77888388818068888388818F7DA7
:104EE000888319BC1092750210927102109273029D
:104EF0001092720200EE10E0F80180818B7F8083B7
:104F000088818160888342E060E080E00E94BE2664
:104F1000E1EEF0E080818E7F8083E2EEF0E0808140
:104F200081608083808188608083F80180818E7FAA
:104F30008083888180618883DF91CF911F910F9159
:104F40000895E8EDF0E080818F7E8083E7EDF0E06A
:104F500080818160808384E082BF81E080937402DD
:104F60000C945E27E8EDF0E080818E7F80831092C4
:104F7000E20008951092DA001092E10008951F9265
:104F80000F920FB60F9211242F933F934F935F937D
:104F90006F937F938F939F93AF93BF93EF93FF9301
:104FA0008091E10082FF0BC08091E20082FF07C088
:104FB0008091E1008B7F8093E1000E941B2A809109
:104FC000DA0080FF1FC08091D80080FF1BC0809155
:104FD000DA008E7F8093DA008091D90080FF0DC0C7
:104FE00080E189BD82E189BD09B400FEFDCF81E089
:104FF000809375020E94162405C019BC1092750298
:105000000E9424248091E10080FF19C08091E20079
:1050100080FF15C08091E2008E7F8093E200809136
:10502000E20080618093E2008091D80080628093EA
:10503000D80019BC85E0809375020E9428248091D5
:10504000E10084FF30C08091E20084FF2CC080E149
:1050500089BD82E189BD09B400FEFDCF8091D800F1
:105060008F7D8093D8008091E1008F7E8093E10056
:105070008091E2008F7E8093E2008091E200816067
:105080008093E20080917102882311F084E007C0D0
:105090008091E30087FF02C083E001C081E080933C
:1050A00075020E9429248091E10083FF29C080912C
:1050B000E20083FF25C08091E100877F8093E100BB
:1050C00082E080937502109271028091E1008E7FE0
:1050D0008093E1008091E2008E7F8093E2008091D6
:1050E000E20080618093E20042E060E080E00E94A4
:1050F000BE268091F00088608093F0000E942724F3
:10510000FF91EF91BF91AF919F918F917F916F919F
:105110005F914F913F912F910F900FBE0F901F9075
:1051200018951F920F920FB60F9211242F933F9351
:105130004F935F936F937F938F939F93AF93BF939F
:10514000CF93EF93FF93C091E900CF708091EC0073
:105150001092E9008091F000877F8093F0007894AE
:105160000E94CD281092E9008091F0008860809321
:10517000F000C093E900FF91EF91CF91BF91AF9103
:105180009F918F917F916F915F914F913F912F915F
:105190000F900FBE0F901F9018951F93CF93DF9322
:1051A000CDB7DEB7AA970FB6F894DEBF0FBECDBF5E
:1051B000E6E7F2E08091F100819322E0EE37F2071A
:1051C000C9F70E943F248091E80083FF1CC1209111
:1051D000760230917702832F90E08A30910508F0B3
:1051E00012C1FC01E556FF4F0C94832B203881F04F
:1051F000223809F008C180917A028F708093E9000B
:105200008091EB0085FB882780F91092E90006C0A9
:105210008091720290917302911182609091E800E6
:10522000977F9093E8008093F1001092F100C5C041
:10523000822F8D7F09F0E7C0222319F0223061F020
:10524000E2C080917802813009F0DDC0333009F08E
:1052500080E08093730228C080917802811124C07D
:1052600020917A022F7009F4CEC02093E90080913A
:10527000EB0080FF19C08091EB00333011F48062A5
:1052800011C080618093EB0081E090E0022E01C0AC
:10529000880F0A94EAF78093EA001092EA0080915E
:1052A000EB0088608093EB001092E9008091E800A9
:1052B000877F86C02111A7C0109178021F77809147
:1052C000E3008078812B8093E3008091E800877F62
:1052D0008093E8000E94F3268091E80080FFFCCFD5
:1052E0008091E30080688093E300112311F083E054
:1052F00001C082E08093750286C02058223008F0F9
:1053000082C080917802909179028C3D23E09207CF
:1053100079F583E08A838AE289834FB7F894DE01C6
:10532000139620E03EE051E2E32FF0E05093570067
:10533000E49120FF03C0E295EF703F5FEF708E2F86
:1053400090E0EA3010F0C79601C0C0968D939D930F
:105350002F5F243149F74FBF8091E800877F80930A
:10536000E8006AE270E0CE0101960E94FB2514C0BD
:10537000AE014F5F5F4F60917A020E942B2500972C
:1053800009F441C02091E800277F2093E800BC0188
:1053900089819A810E945C268091E8008B778093B6
:1053A000E80031C0203879F58091E800877F80934C
:1053B000E800809171028093F1008091E8008E777F
:1053C0008093E8000E94F3261EC021111CC090911A
:1053D00078029230C0F48091E800877F8093E800E3
:1053E000909371020E94F32680917102811104C092
:1053F0008091E30087FF02C084E001C081E08093D8
:1054000075020E942B248091E80083FF0AC08091DE
:10541000E800877F8093E8008091EB0080628093B2
:10542000EB00AA960FB6F894DEBF0FBECDBFDF919A
:10543000CF911F9108950895CF938091750288238D
:10544000B1F08091E9008F709091EC0090FF02C064
:1054500090E801C090E0C92FC82B1092E90080911C
:10546000E80083FD0E94CD28CF70C093E900CF9162
:10547000089504D06894B1118DC0089570D088F05B
:105480009F5790F0B92F9927B751A0F0D1F0660F30
:10549000771F881F991F1AF0BA95C9F712C0B1304B
:1054A00081F077D0B1E0089574C0672F782F8827F6
:1054B000B85F39F0B93FCCF3869577956795B3958A
:1054C000D9F73EF490958095709561957F4F8F4FF9
:1054D0009F4F0895E89409C097FB3EF490958095FE
:1054E000709561957F4F8F4F9F4F9923A9F0F92FAA
:1054F00096E9BB279395F695879577956795B79528
:10550000F111F8CFFAF4BB0F11F460FF1BC06F5F0D
:105510007F4F8F4F9F4F16C0882311F096E911C01F
:10552000772321F09EE8872F762F05C0662371F040
:1055300096E8862F70E060E02AF09A95660F771F54
:10554000881FDAF7880F9695879597F9089557FD84
:105550009058440F551F59F05F3F71F04795880FE1
:1055600097FB991F61F09F3F79F087950895121678
:1055700013061406551FF2CF4695F1DF08C0161624
:1055800017061806991FF1CF8695710561050894D5
:105590000895E894BB2766277727CB0197F90895EC
:1055A0000BD078C069D028F06ED018F0952309F0A0
:1055B0005AC05FC01124EECFCADFA0F3959FD1F38C
:1055C000950F50E0551F629FF001729FBB27F00DB1
:1055D000B11D639FAA27F00DB11DAA1F649F662706
:1055E000B00DA11D661F829F2227B00DA11D621F55
:1055F000739FB00DA11D621F839FA00D611D221F0F
:10560000749F3327A00D611D231F849F600D211DF2
:10561000822F762F6A2F11249F5750408AF0E1F095
:1056200088234AF0EE0FFF1FBB1F661F771F881FDE
:1056300091505040A9F79E3F510570F014C0AACF79
:105640005F3FECF3983EDCF3869577956795B795C9
:10565000F795E7959F5FC1F7FE2B880F911D9695F3
:10566000879597F9089597F99F6780E870E060E063
:1056700008959FEF80EC089500240A9416161706EB
:1056800018060906089500240A9412161306140633
:1056900005060895092E0394000C11F4882352F096
:1056A000BB0F40F4BF2B11F460FF04C06F5F7F4F4E
:1056B0008F4F9F4F0895AA1BBB1B51E107C0AA1F24
:1056C000BB1FA617B70710F0A61BB70B881F991FA3
:1056D0005A95A9F780959095BC01CD01089597FB47
:1056E000072E16F4009407D077FD09D00E945B2B9B
:1056F00007FC05D03EF4909581959F4F08957095D5
:1057000061957F4F0895EE0FFF1F0590F491E02DF6
:105710000994F999FECF92BD81BDF89A992780B579
:105720000895A6E1B0E044E050E00C94C32BA8E15A
:10573000B0E042E050E00C94C32B262FF999FECF45
:1057400092BD81BDF89A019700B4021639F01FBAD4
:1057500020BD0FB6F894FA9AF99A0FBE08950396F1
:10576000272F0E949E2B0E949D2B252F0E949E2B4F
:10577000242F0C949E2B0196272F0E949E2B0C9475
:105780009D2BDC01CB01FC01F999FECF06C0F2BDD7
:10579000E1BDF89A319600B40D9241505040B8F7EF
:0657A0000895F894FFCF0C
:1057A600FFE7012808140A321E2423C22397236127
:1057B60023272301F0F1F4F5F6F7333130953767F7
:1057C60090919293404D3639E00A930A5D0A240A75
:0857D600B709D009E909020A34
:00000001FF
